{
  "contractName": "DellFactory",
  "abi": [
    {
      "inputs": [],
      "stateMutability": "nonpayable",
      "type": "constructor"
    },
    {
      "anonymous": false,
      "inputs": [
        {
          "indexed": true,
          "internalType": "address",
          "name": "account",
          "type": "address"
        },
        {
          "indexed": true,
          "internalType": "address",
          "name": "operator",
          "type": "address"
        },
        {
          "indexed": false,
          "internalType": "bool",
          "name": "approved",
          "type": "bool"
        }
      ],
      "name": "ApprovalForAll",
      "type": "event"
    },
    {
      "anonymous": false,
      "inputs": [
        {
          "indexed": true,
          "internalType": "address",
          "name": "operator",
          "type": "address"
        },
        {
          "indexed": true,
          "internalType": "address",
          "name": "from",
          "type": "address"
        },
        {
          "indexed": true,
          "internalType": "address",
          "name": "to",
          "type": "address"
        },
        {
          "indexed": false,
          "internalType": "uint256[]",
          "name": "ids",
          "type": "uint256[]"
        },
        {
          "indexed": false,
          "internalType": "uint256[]",
          "name": "values",
          "type": "uint256[]"
        }
      ],
      "name": "TransferBatch",
      "type": "event"
    },
    {
      "anonymous": false,
      "inputs": [
        {
          "indexed": true,
          "internalType": "address",
          "name": "operator",
          "type": "address"
        },
        {
          "indexed": true,
          "internalType": "address",
          "name": "from",
          "type": "address"
        },
        {
          "indexed": true,
          "internalType": "address",
          "name": "to",
          "type": "address"
        },
        {
          "indexed": false,
          "internalType": "uint256",
          "name": "id",
          "type": "uint256"
        },
        {
          "indexed": false,
          "internalType": "uint256",
          "name": "value",
          "type": "uint256"
        }
      ],
      "name": "TransferSingle",
      "type": "event"
    },
    {
      "anonymous": false,
      "inputs": [
        {
          "indexed": false,
          "internalType": "string",
          "name": "value",
          "type": "string"
        },
        {
          "indexed": true,
          "internalType": "uint256",
          "name": "id",
          "type": "uint256"
        }
      ],
      "name": "URI",
      "type": "event"
    },
    {
      "inputs": [],
      "name": "_tokenIds",
      "outputs": [
        {
          "internalType": "uint256",
          "name": "_value",
          "type": "uint256"
        }
      ],
      "stateMutability": "view",
      "type": "function",
      "constant": true
    },
    {
      "inputs": [
        {
          "internalType": "address",
          "name": "account",
          "type": "address"
        },
        {
          "internalType": "uint256",
          "name": "id",
          "type": "uint256"
        }
      ],
      "name": "balanceOf",
      "outputs": [
        {
          "internalType": "uint256",
          "name": "",
          "type": "uint256"
        }
      ],
      "stateMutability": "view",
      "type": "function",
      "constant": true
    },
    {
      "inputs": [
        {
          "internalType": "address[]",
          "name": "accounts",
          "type": "address[]"
        },
        {
          "internalType": "uint256[]",
          "name": "ids",
          "type": "uint256[]"
        }
      ],
      "name": "balanceOfBatch",
      "outputs": [
        {
          "internalType": "uint256[]",
          "name": "",
          "type": "uint256[]"
        }
      ],
      "stateMutability": "view",
      "type": "function",
      "constant": true
    },
    {
      "inputs": [
        {
          "internalType": "address",
          "name": "account",
          "type": "address"
        },
        {
          "internalType": "address",
          "name": "operator",
          "type": "address"
        }
      ],
      "name": "isApprovedForAll",
      "outputs": [
        {
          "internalType": "bool",
          "name": "",
          "type": "bool"
        }
      ],
      "stateMutability": "view",
      "type": "function",
      "constant": true
    },
    {
      "inputs": [
        {
          "internalType": "address",
          "name": "from",
          "type": "address"
        },
        {
          "internalType": "address",
          "name": "to",
          "type": "address"
        },
        {
          "internalType": "uint256[]",
          "name": "ids",
          "type": "uint256[]"
        },
        {
          "internalType": "uint256[]",
          "name": "amounts",
          "type": "uint256[]"
        },
        {
          "internalType": "bytes",
          "name": "data",
          "type": "bytes"
        }
      ],
      "name": "safeBatchTransferFrom",
      "outputs": [],
      "stateMutability": "nonpayable",
      "type": "function"
    },
    {
      "inputs": [
        {
          "internalType": "address",
          "name": "from",
          "type": "address"
        },
        {
          "internalType": "address",
          "name": "to",
          "type": "address"
        },
        {
          "internalType": "uint256",
          "name": "id",
          "type": "uint256"
        },
        {
          "internalType": "uint256",
          "name": "amount",
          "type": "uint256"
        },
        {
          "internalType": "bytes",
          "name": "data",
          "type": "bytes"
        }
      ],
      "name": "safeTransferFrom",
      "outputs": [],
      "stateMutability": "nonpayable",
      "type": "function"
    },
    {
      "inputs": [
        {
          "internalType": "address",
          "name": "operator",
          "type": "address"
        },
        {
          "internalType": "bool",
          "name": "approved",
          "type": "bool"
        }
      ],
      "name": "setApprovalForAll",
      "outputs": [],
      "stateMutability": "nonpayable",
      "type": "function"
    },
    {
      "inputs": [
        {
          "internalType": "bytes4",
          "name": "interfaceId",
          "type": "bytes4"
        }
      ],
      "name": "supportsInterface",
      "outputs": [
        {
          "internalType": "bool",
          "name": "",
          "type": "bool"
        }
      ],
      "stateMutability": "view",
      "type": "function",
      "constant": true
    },
    {
      "inputs": [
        {
          "internalType": "uint256",
          "name": "tokenId",
          "type": "uint256"
        }
      ],
      "name": "uri",
      "outputs": [
        {
          "internalType": "string",
          "name": "",
          "type": "string"
        }
      ],
      "stateMutability": "view",
      "type": "function",
      "constant": true
    },
    {
      "inputs": [
        {
          "internalType": "string",
          "name": "_newTokenURI",
          "type": "string"
        }
      ],
      "name": "mintAchievement",
      "outputs": [],
      "stateMutability": "nonpayable",
      "type": "function"
    },
    {
      "inputs": [
        {
          "internalType": "uint256",
          "name": "_tokenId",
          "type": "uint256"
        },
        {
          "internalType": "uint256",
          "name": "_amount",
          "type": "uint256"
        }
      ],
      "name": "burnAchievement",
      "outputs": [],
      "stateMutability": "nonpayable",
      "type": "function"
    },
    {
      "inputs": [
        {
          "internalType": "uint256",
          "name": "_tokenId",
          "type": "uint256"
        }
      ],
      "name": "getAchievement",
      "outputs": [
        {
          "internalType": "string",
          "name": "",
          "type": "string"
        }
      ],
      "stateMutability": "view",
      "type": "function",
      "constant": true
    }
  ],
  "bytecode": "0x60806040523480156200001157600080fd5b506040518060200160405280600081525062000033816200007b60201b60201c565b5033600460006101000a81548173ffffffffffffffffffffffffffffffffffffffff021916908373ffffffffffffffffffffffffffffffffffffffff160217905550620003f1565b80600290816200008c91906200030a565b5050565b600081519050919050565b7f4e487b7100000000000000000000000000000000000000000000000000000000600052604160045260246000fd5b7f4e487b7100000000000000000000000000000000000000000000000000000000600052602260045260246000fd5b600060028204905060018216806200011257607f821691505b602082108103620001285762000127620000ca565b5b50919050565b60008190508160005260206000209050919050565b60006020601f8301049050919050565b600082821b905092915050565b600060088302620001927fffffffffffffffffffffffffffffffffffffffffffffffffffffffffffffffff8262000153565b6200019e868362000153565b95508019841693508086168417925050509392505050565b6000819050919050565b6000819050919050565b6000620001eb620001e5620001df84620001b6565b620001c0565b620001b6565b9050919050565b6000819050919050565b6200020783620001ca565b6200021f6200021682620001f2565b84845462000160565b825550505050565b600090565b6200023662000227565b62000243818484620001fc565b505050565b5b818110156200026b576200025f6000826200022c565b60018101905062000249565b5050565b601f821115620002ba5762000284816200012e565b6200028f8462000143565b810160208510156200029f578190505b620002b7620002ae8562000143565b83018262000248565b50505b505050565b600082821c905092915050565b6000620002df60001984600802620002bf565b1980831691505092915050565b6000620002fa8383620002cc565b9150826002028217905092915050565b620003158262000090565b67ffffffffffffffff8111156200033157620003306200009b565b5b6200033d8254620000f9565b6200034a8282856200026f565b600060209050601f8311600181146200038257600084156200036d578287015190505b620003798582620002ec565b865550620003e9565b601f19841662000392866200012e565b60005b82811015620003bc5784890151825560018201915060208501945060208101905062000395565b86831015620003dc5784890151620003d8601f891682620002cc565b8355505b6001600288020188555050505b505050505050565b61307b80620004016000396000f3fe608060405234801561001057600080fd5b50600436106100b35760003560e01c8063a22cb46511610071578063a22cb465146101b0578063aa46a400146101cc578063e985e9c5146101ea578063f242432a1461021a578063f2ccc54314610236578063fc343c8114610266576100b3565b8062fdd58e146100b857806301ffc9a7146100e85780630e89341c146101185780632eb2c2d6146101485780634e1273f4146101645780635138eee314610194575b600080fd5b6100d260048036038101906100cd91906119d6565b610282565b6040516100df9190611a25565b60405180910390f35b61010260048036038101906100fd9190611a98565b61034a565b60405161010f9190611ae0565b60405180910390f35b610132600480360381019061012d9190611afb565b61042c565b60405161013f9190611bb8565b60405180910390f35b610162600480360381019061015d9190611dd7565b6104d1565b005b61017e60048036038101906101799190611f69565b610572565b60405161018b919061209f565b60405180910390f35b6101ae60048036038101906101a99190612162565b61068b565b005b6101ca60048036038101906101c591906121d7565b6106cd565b005b6101d46106e3565b6040516101e19190611a25565b60405180910390f35b61020460048036038101906101ff9190612217565b6106ef565b6040516102119190611ae0565b60405180910390f35b610234600480360381019061022f9190612257565b610783565b005b610250600480360381019061024b9190611afb565b610824565b60405161025d9190611bb8565b60405180910390f35b610280600480360381019061027b91906122ee565b6108c9565b005b60008073ffffffffffffffffffffffffffffffffffffffff168373ffffffffffffffffffffffffffffffffffffffff16036102f2576040517f08c379a00000000000000000000000000000000000000000000000000000000081526004016102e9906123a0565b60405180910390fd5b60008083815260200190815260200160002060008473ffffffffffffffffffffffffffffffffffffffff1673ffffffffffffffffffffffffffffffffffffffff16815260200190815260200160002054905092915050565b60007fd9b67a26000000000000000000000000000000000000000000000000000000007bffffffffffffffffffffffffffffffffffffffffffffffffffffffff1916827bffffffffffffffffffffffffffffffffffffffffffffffffffffffff1916148061041557507f0e89341c000000000000000000000000000000000000000000000000000000007bffffffffffffffffffffffffffffffffffffffffffffffffffffffff1916827bffffffffffffffffffffffffffffffffffffffffffffffffffffffff1916145b806104255750610424826108fa565b5b9050919050565b606060066000838152602001908152602001600020805461044c906123ef565b80601f0160208091040260200160405190810160405280929190818152602001828054610478906123ef565b80156104c55780601f1061049a576101008083540402835291602001916104c5565b820191906000526020600020905b8154815290600101906020018083116104a857829003601f168201915b50505050509050919050565b6104d9610964565b73ffffffffffffffffffffffffffffffffffffffff168573ffffffffffffffffffffffffffffffffffffffff16148061051f575061051e85610519610964565b6106ef565b5b61055e576040517f08c379a000000000000000000000000000000000000000000000000000000000815260040161055590612492565b60405180910390fd5b61056b858585858561096c565b5050505050565b606081518351146105b8576040517f08c379a00000000000000000000000000000000000000000000000000000000081526004016105af90612524565b60405180910390fd5b6000835167ffffffffffffffff8111156105d5576105d4611bdf565b5b6040519080825280602002602001820160405280156106035781602001602082028036833780820191505090505b50905060005b84518110156106805761065085828151811061062857610627612544565b5b602002602001015185838151811061064357610642612544565b5b6020026020010151610282565b82828151811061066357610662612544565b5b60200260200101818152505080610679906125a2565b9050610609565b508091505092915050565b60006106976003610c8d565b90506106b53382600160405180602001604052806000815250610c9b565b6106bf8183610e4b565b6106c96003610e70565b5050565b6106df6106d8610964565b8383610e86565b5050565b60038060000154905081565b6000600160008473ffffffffffffffffffffffffffffffffffffffff1673ffffffffffffffffffffffffffffffffffffffff16815260200190815260200160002060008373ffffffffffffffffffffffffffffffffffffffff1673ffffffffffffffffffffffffffffffffffffffff16815260200190815260200160002060009054906101000a900460ff16905092915050565b61078b610964565b73ffffffffffffffffffffffffffffffffffffffff168573ffffffffffffffffffffffffffffffffffffffff1614806107d157506107d0856107cb610964565b6106ef565b5b610810576040517f08c379a000000000000000000000000000000000000000000000000000000000815260040161080790612492565b60405180910390fd5b61081d8585858585610ff2565b5050505050565b6060600660008381526020019081526020016000208054610844906123ef565b80601f0160208091040260200160405190810160405280929190818152602001828054610870906123ef565b80156108bd5780601f10610892576101008083540402835291602001916108bd565b820191906000526020600020905b8154815290600101906020018083116108a057829003601f168201915b50505050509050919050565b6108f6600460009054906101000a900473ffffffffffffffffffffffffffffffffffffffff16838361128d565b5050565b60007f01ffc9a7000000000000000000000000000000000000000000000000000000007bffffffffffffffffffffffffffffffffffffffffffffffffffffffff1916827bffffffffffffffffffffffffffffffffffffffffffffffffffffffff1916149050919050565b600033905090565b81518351146109b0576040517f08c379a00000000000000000000000000000000000000000000000000000000081526004016109a79061265c565b60405180910390fd5b600073ffffffffffffffffffffffffffffffffffffffff168473ffffffffffffffffffffffffffffffffffffffff1603610a1f576040517f08c379a0000000000000000000000000000000000000000000000000000000008152600401610a16906126ee565b60405180910390fd5b6000610a29610964565b9050610a398187878787876114d3565b60005b8451811015610bea576000858281518110610a5a57610a59612544565b5b602002602001015190506000858381518110610a7957610a78612544565b5b60200260200101519050600080600084815260200190815260200160002060008b73ffffffffffffffffffffffffffffffffffffffff1673ffffffffffffffffffffffffffffffffffffffff16815260200190815260200160002054905081811015610b1a576040517f08c379a0000000000000000000000000000000000000000000000000000000008152600401610b1190612780565b60405180910390fd5b81810360008085815260200190815260200160002060008c73ffffffffffffffffffffffffffffffffffffffff1673ffffffffffffffffffffffffffffffffffffffff168152602001908152602001600020819055508160008085815260200190815260200160002060008b73ffffffffffffffffffffffffffffffffffffffff1673ffffffffffffffffffffffffffffffffffffffff1681526020019081526020016000206000828254610bcf91906127a0565b9250508190555050505080610be3906125a2565b9050610a3c565b508473ffffffffffffffffffffffffffffffffffffffff168673ffffffffffffffffffffffffffffffffffffffff168273ffffffffffffffffffffffffffffffffffffffff167f4a39dc06d4c0dbc64b70af90fd698a233a518aa5d07e595d983b8c0526c8f7fb8787604051610c619291906127d4565b60405180910390a4610c778187878787876114db565b610c858187878787876114e3565b505050505050565b600081600001549050919050565b600073ffffffffffffffffffffffffffffffffffffffff168473ffffffffffffffffffffffffffffffffffffffff1603610d0a576040517f08c379a0000000000000000000000000000000000000000000000000000000008152600401610d019061287d565b60405180910390fd5b6000610d14610964565b90506000610d21856116ba565b90506000610d2e856116ba565b9050610d3f836000898585896114d3565b8460008088815260200190815260200160002060008973ffffffffffffffffffffffffffffffffffffffff1673ffffffffffffffffffffffffffffffffffffffff1681526020019081526020016000206000828254610d9e91906127a0565b925050819055508673ffffffffffffffffffffffffffffffffffffffff16600073ffffffffffffffffffffffffffffffffffffffff168473ffffffffffffffffffffffffffffffffffffffff167fc3d58168c5ae7397731d063d5bbf3d657854427343f4c083240f7aacaa2d0f628989604051610e1c92919061289d565b60405180910390a4610e33836000898585896114db565b610e4283600089898989611734565b50505050505050565b80600660008481526020019081526020016000209081610e6b9190612a72565b505050565b6001816000016000828254019250508190555050565b8173ffffffffffffffffffffffffffffffffffffffff168373ffffffffffffffffffffffffffffffffffffffff1603610ef4576040517f08c379a0000000000000000000000000000000000000000000000000000000008152600401610eeb90612bb6565b60405180910390fd5b80600160008573ffffffffffffffffffffffffffffffffffffffff1673ffffffffffffffffffffffffffffffffffffffff16815260200190815260200160002060008473ffffffffffffffffffffffffffffffffffffffff1673ffffffffffffffffffffffffffffffffffffffff16815260200190815260200160002060006101000a81548160ff0219169083151502179055508173ffffffffffffffffffffffffffffffffffffffff168373ffffffffffffffffffffffffffffffffffffffff167f17307eab39ab6107e8899845ad3d59bd9653f200f220920489ca2b5937696c3183604051610fe59190611ae0565b60405180910390a3505050565b600073ffffffffffffffffffffffffffffffffffffffff168473ffffffffffffffffffffffffffffffffffffffff1603611061576040517f08c379a0000000000000000000000000000000000000000000000000000000008152600401611058906126ee565b60405180910390fd5b600061106b610964565b90506000611078856116ba565b90506000611085856116ba565b90506110958389898585896114d3565b600080600088815260200190815260200160002060008a73ffffffffffffffffffffffffffffffffffffffff1673ffffffffffffffffffffffffffffffffffffffff1681526020019081526020016000205490508581101561112c576040517f08c379a000000000000000000000000000000000000000000000000000000000815260040161112390612780565b60405180910390fd5b85810360008089815260200190815260200160002060008b73ffffffffffffffffffffffffffffffffffffffff1673ffffffffffffffffffffffffffffffffffffffff168152602001908152602001600020819055508560008089815260200190815260200160002060008a73ffffffffffffffffffffffffffffffffffffffff1673ffffffffffffffffffffffffffffffffffffffff16815260200190815260200160002060008282546111e191906127a0565b925050819055508773ffffffffffffffffffffffffffffffffffffffff168973ffffffffffffffffffffffffffffffffffffffff168573ffffffffffffffffffffffffffffffffffffffff167fc3d58168c5ae7397731d063d5bbf3d657854427343f4c083240f7aacaa2d0f628a8a60405161125e92919061289d565b60405180910390a4611274848a8a86868a6114db565b611282848a8a8a8a8a611734565b505050505050505050565b600073ffffffffffffffffffffffffffffffffffffffff168373ffffffffffffffffffffffffffffffffffffffff16036112fc576040517f08c379a00000000000000000000000000000000000000000000000000000000081526004016112f390612c48565b60405180910390fd5b6000611306610964565b90506000611313846116ba565b90506000611320846116ba565b9050611340838760008585604051806020016040528060008152506114d3565b600080600087815260200190815260200160002060008873ffffffffffffffffffffffffffffffffffffffff1673ffffffffffffffffffffffffffffffffffffffff168152602001908152602001600020549050848110156113d7576040517f08c379a00000000000000000000000000000000000000000000000000000000081526004016113ce90612cda565b60405180910390fd5b84810360008088815260200190815260200160002060008973ffffffffffffffffffffffffffffffffffffffff1673ffffffffffffffffffffffffffffffffffffffff16815260200190815260200160002081905550600073ffffffffffffffffffffffffffffffffffffffff168773ffffffffffffffffffffffffffffffffffffffff168573ffffffffffffffffffffffffffffffffffffffff167fc3d58168c5ae7397731d063d5bbf3d657854427343f4c083240f7aacaa2d0f6289896040516114a492919061289d565b60405180910390a46114ca848860008686604051806020016040528060008152506114db565b50505050505050565b505050505050565b505050505050565b6115028473ffffffffffffffffffffffffffffffffffffffff1661190b565b156116b2578373ffffffffffffffffffffffffffffffffffffffff1663bc197c8187878686866040518663ffffffff1660e01b8152600401611548959493929190612d5e565b6020604051808303816000875af192505050801561158457506040513d601f19601f820116820180604052508101906115819190612ddb565b60015b61162957611590612e15565b806308c379a0036115ec57506115a4612e37565b806115af57506115ee565b806040517f08c379a00000000000000000000000000000000000000000000000000000000081526004016115e39190611bb8565b60405180910390fd5b505b6040517f08c379a000000000000000000000000000000000000000000000000000000000815260040161162090612f39565b60405180910390fd5b63bc197c8160e01b7bffffffffffffffffffffffffffffffffffffffffffffffffffffffff1916817bffffffffffffffffffffffffffffffffffffffffffffffffffffffff1916146116b0576040517f08c379a00000000000000000000000000000000000000000000000000000000081526004016116a790612fcb565b60405180910390fd5b505b505050505050565b60606000600167ffffffffffffffff8111156116d9576116d8611bdf565b5b6040519080825280602002602001820160405280156117075781602001602082028036833780820191505090505b509050828160008151811061171f5761171e612544565b5b60200260200101818152505080915050919050565b6117538473ffffffffffffffffffffffffffffffffffffffff1661190b565b15611903578373ffffffffffffffffffffffffffffffffffffffff1663f23a6e6187878686866040518663ffffffff1660e01b8152600401611799959493929190612feb565b6020604051808303816000875af19250505080156117d557506040513d601f19601f820116820180604052508101906117d29190612ddb565b60015b61187a576117e1612e15565b806308c379a00361183d57506117f5612e37565b80611800575061183f565b806040517f08c379a00000000000000000000000000000000000000000000000000000000081526004016118349190611bb8565b60405180910390fd5b505b6040517f08c379a000000000000000000000000000000000000000000000000000000000815260040161187190612f39565b60405180910390fd5b63f23a6e6160e01b7bffffffffffffffffffffffffffffffffffffffffffffffffffffffff1916817bffffffffffffffffffffffffffffffffffffffffffffffffffffffff191614611901576040517f08c379a00000000000000000000000000000000000000000000000000000000081526004016118f890612fcb565b60405180910390fd5b505b505050505050565b6000808273ffffffffffffffffffffffffffffffffffffffff163b119050919050565b6000604051905090565b600080fd5b600080fd5b600073ffffffffffffffffffffffffffffffffffffffff82169050919050565b600061196d82611942565b9050919050565b61197d81611962565b811461198857600080fd5b50565b60008135905061199a81611974565b92915050565b6000819050919050565b6119b3816119a0565b81146119be57600080fd5b50565b6000813590506119d0816119aa565b92915050565b600080604083850312156119ed576119ec611938565b5b60006119fb8582860161198b565b9250506020611a0c858286016119c1565b9150509250929050565b611a1f816119a0565b82525050565b6000602082019050611a3a6000830184611a16565b92915050565b60007fffffffff0000000000000000000000000000000000000000000000000000000082169050919050565b611a7581611a40565b8114611a8057600080fd5b50565b600081359050611a9281611a6c565b92915050565b600060208284031215611aae57611aad611938565b5b6000611abc84828501611a83565b91505092915050565b60008115159050919050565b611ada81611ac5565b82525050565b6000602082019050611af56000830184611ad1565b92915050565b600060208284031215611b1157611b10611938565b5b6000611b1f848285016119c1565b91505092915050565b600081519050919050565b600082825260208201905092915050565b60005b83811015611b62578082015181840152602081019050611b47565b60008484015250505050565b6000601f19601f8301169050919050565b6000611b8a82611b28565b611b948185611b33565b9350611ba4818560208601611b44565b611bad81611b6e565b840191505092915050565b60006020820190508181036000830152611bd28184611b7f565b905092915050565b600080fd5b7f4e487b7100000000000000000000000000000000000000000000000000000000600052604160045260246000fd5b611c1782611b6e565b810181811067ffffffffffffffff82111715611c3657611c35611bdf565b5b80604052505050565b6000611c4961192e565b9050611c558282611c0e565b919050565b600067ffffffffffffffff821115611c7557611c74611bdf565b5b602082029050602081019050919050565b600080fd5b6000611c9e611c9984611c5a565b611c3f565b90508083825260208201905060208402830185811115611cc157611cc0611c86565b5b835b81811015611cea5780611cd688826119c1565b845260208401935050602081019050611cc3565b5050509392505050565b600082601f830112611d0957611d08611bda565b5b8135611d19848260208601611c8b565b91505092915050565b600080fd5b600067ffffffffffffffff821115611d4257611d41611bdf565b5b611d4b82611b6e565b9050602081019050919050565b82818337600083830152505050565b6000611d7a611d7584611d27565b611c3f565b905082815260208101848484011115611d9657611d95611d22565b5b611da1848285611d58565b509392505050565b600082601f830112611dbe57611dbd611bda565b5b8135611dce848260208601611d67565b91505092915050565b600080600080600060a08688031215611df357611df2611938565b5b6000611e018882890161198b565b9550506020611e128882890161198b565b945050604086013567ffffffffffffffff811115611e3357611e3261193d565b5b611e3f88828901611cf4565b935050606086013567ffffffffffffffff811115611e6057611e5f61193d565b5b611e6c88828901611cf4565b925050608086013567ffffffffffffffff811115611e8d57611e8c61193d565b5b611e9988828901611da9565b9150509295509295909350565b600067ffffffffffffffff821115611ec157611ec0611bdf565b5b602082029050602081019050919050565b6000611ee5611ee084611ea6565b611c3f565b90508083825260208201905060208402830185811115611f0857611f07611c86565b5b835b81811015611f315780611f1d888261198b565b845260208401935050602081019050611f0a565b5050509392505050565b600082601f830112611f5057611f4f611bda565b5b8135611f60848260208601611ed2565b91505092915050565b60008060408385031215611f8057611f7f611938565b5b600083013567ffffffffffffffff811115611f9e57611f9d61193d565b5b611faa85828601611f3b565b925050602083013567ffffffffffffffff811115611fcb57611fca61193d565b5b611fd785828601611cf4565b9150509250929050565b600081519050919050565b600082825260208201905092915050565b6000819050602082019050919050565b612016816119a0565b82525050565b6000612028838361200d565b60208301905092915050565b6000602082019050919050565b600061204c82611fe1565b6120568185611fec565b935061206183611ffd565b8060005b83811015612092578151612079888261201c565b975061208483612034565b925050600181019050612065565b5085935050505092915050565b600060208201905081810360008301526120b98184612041565b905092915050565b600067ffffffffffffffff8211156120dc576120db611bdf565b5b6120e582611b6e565b9050602081019050919050565b6000612105612100846120c1565b611c3f565b90508281526020810184848401111561212157612120611d22565b5b61212c848285611d58565b509392505050565b600082601f83011261214957612148611bda565b5b81356121598482602086016120f2565b91505092915050565b60006020828403121561217857612177611938565b5b600082013567ffffffffffffffff8111156121965761219561193d565b5b6121a284828501612134565b91505092915050565b6121b481611ac5565b81146121bf57600080fd5b50565b6000813590506121d1816121ab565b92915050565b600080604083850312156121ee576121ed611938565b5b60006121fc8582860161198b565b925050602061220d858286016121c2565b9150509250929050565b6000806040838503121561222e5761222d611938565b5b600061223c8582860161198b565b925050602061224d8582860161198b565b9150509250929050565b600080600080600060a0868803121561227357612272611938565b5b60006122818882890161198b565b95505060206122928882890161198b565b94505060406122a3888289016119c1565b93505060606122b4888289016119c1565b925050608086013567ffffffffffffffff8111156122d5576122d461193d565b5b6122e188828901611da9565b9150509295509295909350565b6000806040838503121561230557612304611938565b5b6000612313858286016119c1565b9250506020612324858286016119c1565b9150509250929050565b7f455243313135353a2061646472657373207a65726f206973206e6f742061207660008201527f616c6964206f776e657200000000000000000000000000000000000000000000602082015250565b600061238a602a83611b33565b91506123958261232e565b604082019050919050565b600060208201905081810360008301526123b98161237d565b9050919050565b7f4e487b7100000000000000000000000000000000000000000000000000000000600052602260045260246000fd5b6000600282049050600182168061240757607f821691505b60208210810361241a576124196123c0565b5b50919050565b7f455243313135353a2063616c6c6572206973206e6f7420746f6b656e206f776e60008201527f6572206f7220617070726f766564000000000000000000000000000000000000602082015250565b600061247c602e83611b33565b915061248782612420565b604082019050919050565b600060208201905081810360008301526124ab8161246f565b9050919050565b7f455243313135353a206163636f756e747320616e6420696473206c656e67746860008201527f206d69736d617463680000000000000000000000000000000000000000000000602082015250565b600061250e602983611b33565b9150612519826124b2565b604082019050919050565b6000602082019050818103600083015261253d81612501565b9050919050565b7f4e487b7100000000000000000000000000000000000000000000000000000000600052603260045260246000fd5b7f4e487b7100000000000000000000000000000000000000000000000000000000600052601160045260246000fd5b60006125ad826119a0565b91507fffffffffffffffffffffffffffffffffffffffffffffffffffffffffffffffff82036125df576125de612573565b5b600182019050919050565b7f455243313135353a2069647320616e6420616d6f756e7473206c656e6774682060008201527f6d69736d61746368000000000000000000000000000000000000000000000000602082015250565b6000612646602883611b33565b9150612651826125ea565b604082019050919050565b6000602082019050818103600083015261267581612639565b9050919050565b7f455243313135353a207472616e7366657220746f20746865207a65726f20616460008201527f6472657373000000000000000000000000000000000000000000000000000000602082015250565b60006126d8602583611b33565b91506126e38261267c565b604082019050919050565b60006020820190508181036000830152612707816126cb565b9050919050565b7f455243313135353a20696e73756666696369656e742062616c616e636520666f60008201527f72207472616e7366657200000000000000000000000000000000000000000000602082015250565b600061276a602a83611b33565b91506127758261270e565b604082019050919050565b600060208201905081810360008301526127998161275d565b9050919050565b60006127ab826119a0565b91506127b6836119a0565b92508282019050808211156127ce576127cd612573565b5b92915050565b600060408201905081810360008301526127ee8185612041565b905081810360208301526128028184612041565b90509392505050565b7f455243313135353a206d696e7420746f20746865207a65726f2061646472657360008201527f7300000000000000000000000000000000000000000000000000000000000000602082015250565b6000612867602183611b33565b91506128728261280b565b604082019050919050565b600060208201905081810360008301526128968161285a565b9050919050565b60006040820190506128b26000830185611a16565b6128bf6020830184611a16565b9392505050565b60008190508160005260206000209050919050565b60006020601f8301049050919050565b600082821b905092915050565b6000600883026129287fffffffffffffffffffffffffffffffffffffffffffffffffffffffffffffffff826128eb565b61293286836128eb565b95508019841693508086168417925050509392505050565b6000819050919050565b600061296f61296a612965846119a0565b61294a565b6119a0565b9050919050565b6000819050919050565b61298983612954565b61299d61299582612976565b8484546128f8565b825550505050565b600090565b6129b26129a5565b6129bd818484612980565b505050565b5b818110156129e1576129d66000826129aa565b6001810190506129c3565b5050565b601f821115612a26576129f7816128c6565b612a00846128db565b81016020851015612a0f578190505b612a23612a1b856128db565b8301826129c2565b50505b505050565b600082821c905092915050565b6000612a4960001984600802612a2b565b1980831691505092915050565b6000612a628383612a38565b9150826002028217905092915050565b612a7b82611b28565b67ffffffffffffffff811115612a9457612a93611bdf565b5b612a9e82546123ef565b612aa98282856129e5565b600060209050601f831160018114612adc5760008415612aca578287015190505b612ad48582612a56565b865550612b3c565b601f198416612aea866128c6565b60005b82811015612b1257848901518255600182019150602085019450602081019050612aed565b86831015612b2f5784890151612b2b601f891682612a38565b8355505b6001600288020188555050505b505050505050565b7f455243313135353a2073657474696e6720617070726f76616c2073746174757360008201527f20666f722073656c660000000000000000000000000000000000000000000000602082015250565b6000612ba0602983611b33565b9150612bab82612b44565b604082019050919050565b60006020820190508181036000830152612bcf81612b93565b9050919050565b7f455243313135353a206275726e2066726f6d20746865207a65726f206164647260008201527f6573730000000000000000000000000000000000000000000000000000000000602082015250565b6000612c32602383611b33565b9150612c3d82612bd6565b604082019050919050565b60006020820190508181036000830152612c6181612c25565b9050919050565b7f455243313135353a206275726e20616d6f756e7420657863656564732062616c60008201527f616e636500000000000000000000000000000000000000000000000000000000602082015250565b6000612cc4602483611b33565b9150612ccf82612c68565b604082019050919050565b60006020820190508181036000830152612cf381612cb7565b9050919050565b612d0381611962565b82525050565b600081519050919050565b600082825260208201905092915050565b6000612d3082612d09565b612d3a8185612d14565b9350612d4a818560208601611b44565b612d5381611b6e565b840191505092915050565b600060a082019050612d736000830188612cfa565b612d806020830187612cfa565b8181036040830152612d928186612041565b90508181036060830152612da68185612041565b90508181036080830152612dba8184612d25565b90509695505050505050565b600081519050612dd581611a6c565b92915050565b600060208284031215612df157612df0611938565b5b6000612dff84828501612dc6565b91505092915050565b60008160e01c9050919050565b600060033d1115612e345760046000803e612e31600051612e08565b90505b90565b600060443d10612ec457612e4961192e565b60043d036004823e80513d602482011167ffffffffffffffff82111715612e71575050612ec4565b808201805167ffffffffffffffff811115612e8f5750505050612ec4565b80602083010160043d038501811115612eac575050505050612ec4565b612ebb82602001850186611c0e565b82955050505050505b90565b7f455243313135353a207472616e7366657220746f206e6f6e2d4552433131353560008201527f526563656976657220696d706c656d656e746572000000000000000000000000602082015250565b6000612f23603483611b33565b9150612f2e82612ec7565b604082019050919050565b60006020820190508181036000830152612f5281612f16565b9050919050565b7f455243313135353a204552433131353552656365697665722072656a6563746560008201527f6420746f6b656e73000000000000000000000000000000000000000000000000602082015250565b6000612fb5602883611b33565b9150612fc082612f59565b604082019050919050565b60006020820190508181036000830152612fe481612fa8565b9050919050565b600060a0820190506130006000830188612cfa565b61300d6020830187612cfa565b61301a6040830186611a16565b6130276060830185611a16565b81810360808301526130398184612d25565b9050969550505050505056fea26469706673582212207fcf59c41296df887d5baaf9ed745e8fbe41ea88a294e963f62471ab5bf2557f64736f6c63430008130033",
  "immutableReferences": {},
  "source": "// SPDX-License-Identifier: GPL-3.0\r\npragma solidity ^0.8.15;\r\n\r\nimport \"../node_modules/@openzeppelin/contracts/token/ERC1155/ERC1155.sol\";\r\nimport \"../node_modules/@openzeppelin/contracts/utils/Counters.sol\";\r\n\r\ncontract DellFactory is ERC1155 {\r\n    using Counters for Counters.Counter;\r\n    Counters.Counter public _tokenIds;\r\n\r\n    // State Variables\r\n    address private owner;\r\n    string private _uri;\r\n    mapping(uint256 => string) private _tokenURIs;\r\n\r\n    // Modifier\r\n    modifier isOwner() {\r\n        require(owner == msg.sender, \"Not owner!\");\r\n        _;\r\n    }\r\n\r\n    // Constructor\r\n    constructor() ERC1155(\"\") {\r\n        owner = msg.sender;\r\n    }\r\n\r\n    // Functions\r\n    function _setTokenUri(uint256 tokenId, string memory tokenURI) private {\r\n        _tokenURIs[tokenId] = tokenURI;\r\n    }\r\n\r\n    function uri(uint256 tokenId) public view override returns (string memory) {\r\n        return (_tokenURIs[tokenId]);\r\n    }\r\n\r\n    function mintAchievement(string memory _newTokenURI) public {\r\n        // Picking the actual token id\r\n        uint256 newNFTId = _tokenIds.current();\r\n\r\n        // Creating a NFT to the user\r\n        _mint(msg.sender, newNFTId, 1, \"\");\r\n\r\n        // Setting the token URI for the NFT just minted\r\n        _setTokenUri(newNFTId, _newTokenURI);\r\n\r\n        // Increasing the token Id\r\n        _tokenIds.increment();\r\n\r\n        // Trasfering the NFT to the receiver\r\n        // safeTransferFrom(owner, _receiver, newNFTId, _amount, \"\");\r\n    }\r\n\r\n    function burnAchievement(uint256 _tokenId, uint256 _amount) public {\r\n        _burn(owner, _tokenId, _amount);\r\n    }\r\n\r\n    function getAchievement(\r\n        uint256 _tokenId\r\n    ) public view returns (string memory) {\r\n        return _tokenURIs[_tokenId];\r\n    }\r\n}\r\n",
  "sourcePath": "C:\\Users\\Rogerio\\Documents\\GitHub\\ProjetoDell\\2023-1a-t03-grupo5\\src\\Blockchain\\contracts\\DellFactory.sol",
  "compiler": {
    "name": "solc",
    "version": "0.8.19+commit.7dd6d404.Emscripten.clang"
  },
  "schemaVersion": "3.4.13",
  "updatedAt": "2023-04-04T20:11:19.302Z",
  "networkType": "ethereum",
  "devdoc": {
    "events": {
      "ApprovalForAll(address,address,bool)": {
        "details": "Emitted when `account` grants or revokes permission to `operator` to transfer their tokens, according to `approved`."
      },
      "TransferBatch(address,address,address,uint256[],uint256[])": {
        "details": "Equivalent to multiple {TransferSingle} events, where `operator`, `from` and `to` are the same for all transfers."
      },
      "TransferSingle(address,address,address,uint256,uint256)": {
        "details": "Emitted when `value` tokens of token type `id` are transferred from `from` to `to` by `operator`."
      },
      "URI(string,uint256)": {
        "details": "Emitted when the URI for token type `id` changes to `value`, if it is a non-programmatic URI. If an {URI} event was emitted for `id`, the standard https://eips.ethereum.org/EIPS/eip-1155#metadata-extensions[guarantees] that `value` will equal the value returned by {IERC1155MetadataURI-uri}."
      }
    },
    "kind": "dev",
    "methods": {
      "balanceOf(address,uint256)": {
        "details": "See {IERC1155-balanceOf}. Requirements: - `account` cannot be the zero address."
      },
      "balanceOfBatch(address[],uint256[])": {
        "details": "See {IERC1155-balanceOfBatch}. Requirements: - `accounts` and `ids` must have the same length."
      },
      "isApprovedForAll(address,address)": {
        "details": "See {IERC1155-isApprovedForAll}."
      },
      "safeBatchTransferFrom(address,address,uint256[],uint256[],bytes)": {
        "details": "See {IERC1155-safeBatchTransferFrom}."
      },
      "safeTransferFrom(address,address,uint256,uint256,bytes)": {
        "details": "See {IERC1155-safeTransferFrom}."
      },
      "setApprovalForAll(address,bool)": {
        "details": "See {IERC1155-setApprovalForAll}."
      },
      "supportsInterface(bytes4)": {
        "details": "See {IERC165-supportsInterface}."
      }
    },
    "version": 1
  },
  "userdoc": {
    "kind": "user",
    "methods": {},
    "version": 1
  }
}