{
  "contractName": "DellFactory",
  "abi": [
    {
      "inputs": [],
      "stateMutability": "nonpayable",
      "type": "constructor"
    },
    {
      "anonymous": false,
      "inputs": [
        {
          "indexed": true,
          "internalType": "address",
          "name": "account",
          "type": "address"
        },
        {
          "indexed": true,
          "internalType": "address",
          "name": "operator",
          "type": "address"
        },
        {
          "indexed": false,
          "internalType": "bool",
          "name": "approved",
          "type": "bool"
        }
      ],
      "name": "ApprovalForAll",
      "type": "event"
    },
    {
      "anonymous": false,
      "inputs": [
        {
          "indexed": true,
          "internalType": "address",
          "name": "operator",
          "type": "address"
        },
        {
          "indexed": true,
          "internalType": "address",
          "name": "from",
          "type": "address"
        },
        {
          "indexed": true,
          "internalType": "address",
          "name": "to",
          "type": "address"
        },
        {
          "indexed": false,
          "internalType": "uint256[]",
          "name": "ids",
          "type": "uint256[]"
        },
        {
          "indexed": false,
          "internalType": "uint256[]",
          "name": "values",
          "type": "uint256[]"
        }
      ],
      "name": "TransferBatch",
      "type": "event"
    },
    {
      "anonymous": false,
      "inputs": [
        {
          "indexed": true,
          "internalType": "address",
          "name": "operator",
          "type": "address"
        },
        {
          "indexed": true,
          "internalType": "address",
          "name": "from",
          "type": "address"
        },
        {
          "indexed": true,
          "internalType": "address",
          "name": "to",
          "type": "address"
        },
        {
          "indexed": false,
          "internalType": "uint256",
          "name": "id",
          "type": "uint256"
        },
        {
          "indexed": false,
          "internalType": "uint256",
          "name": "value",
          "type": "uint256"
        }
      ],
      "name": "TransferSingle",
      "type": "event"
    },
    {
      "anonymous": false,
      "inputs": [
        {
          "indexed": false,
          "internalType": "string",
          "name": "value",
          "type": "string"
        },
        {
          "indexed": true,
          "internalType": "uint256",
          "name": "id",
          "type": "uint256"
        }
      ],
      "name": "URI",
      "type": "event"
    },
    {
      "inputs": [],
      "name": "_tokenIds",
      "outputs": [
        {
          "internalType": "uint256",
          "name": "_value",
          "type": "uint256"
        }
      ],
      "stateMutability": "view",
      "type": "function",
      "constant": true
    },
    {
      "inputs": [
        {
          "internalType": "address",
          "name": "account",
          "type": "address"
        },
        {
          "internalType": "uint256",
          "name": "id",
          "type": "uint256"
        }
      ],
      "name": "balanceOf",
      "outputs": [
        {
          "internalType": "uint256",
          "name": "",
          "type": "uint256"
        }
      ],
      "stateMutability": "view",
      "type": "function",
      "constant": true
    },
    {
      "inputs": [
        {
          "internalType": "address[]",
          "name": "accounts",
          "type": "address[]"
        },
        {
          "internalType": "uint256[]",
          "name": "ids",
          "type": "uint256[]"
        }
      ],
      "name": "balanceOfBatch",
      "outputs": [
        {
          "internalType": "uint256[]",
          "name": "",
          "type": "uint256[]"
        }
      ],
      "stateMutability": "view",
      "type": "function",
      "constant": true
    },
    {
      "inputs": [
        {
          "internalType": "address",
          "name": "account",
          "type": "address"
        },
        {
          "internalType": "address",
          "name": "operator",
          "type": "address"
        }
      ],
      "name": "isApprovedForAll",
      "outputs": [
        {
          "internalType": "bool",
          "name": "",
          "type": "bool"
        }
      ],
      "stateMutability": "view",
      "type": "function",
      "constant": true
    },
    {
      "inputs": [
        {
          "internalType": "address",
          "name": "from",
          "type": "address"
        },
        {
          "internalType": "address",
          "name": "to",
          "type": "address"
        },
        {
          "internalType": "uint256[]",
          "name": "ids",
          "type": "uint256[]"
        },
        {
          "internalType": "uint256[]",
          "name": "amounts",
          "type": "uint256[]"
        },
        {
          "internalType": "bytes",
          "name": "data",
          "type": "bytes"
        }
      ],
      "name": "safeBatchTransferFrom",
      "outputs": [],
      "stateMutability": "nonpayable",
      "type": "function"
    },
    {
      "inputs": [
        {
          "internalType": "address",
          "name": "from",
          "type": "address"
        },
        {
          "internalType": "address",
          "name": "to",
          "type": "address"
        },
        {
          "internalType": "uint256",
          "name": "id",
          "type": "uint256"
        },
        {
          "internalType": "uint256",
          "name": "amount",
          "type": "uint256"
        },
        {
          "internalType": "bytes",
          "name": "data",
          "type": "bytes"
        }
      ],
      "name": "safeTransferFrom",
      "outputs": [],
      "stateMutability": "nonpayable",
      "type": "function"
    },
    {
      "inputs": [
        {
          "internalType": "address",
          "name": "operator",
          "type": "address"
        },
        {
          "internalType": "bool",
          "name": "approved",
          "type": "bool"
        }
      ],
      "name": "setApprovalForAll",
      "outputs": [],
      "stateMutability": "nonpayable",
      "type": "function"
    },
    {
      "inputs": [
        {
          "internalType": "bytes4",
          "name": "interfaceId",
          "type": "bytes4"
        }
      ],
      "name": "supportsInterface",
      "outputs": [
        {
          "internalType": "bool",
          "name": "",
          "type": "bool"
        }
      ],
      "stateMutability": "view",
      "type": "function",
      "constant": true
    },
    {
      "inputs": [
        {
          "internalType": "uint256",
          "name": "tokenId",
          "type": "uint256"
        }
      ],
      "name": "uri",
      "outputs": [
        {
          "internalType": "string",
          "name": "",
          "type": "string"
        }
      ],
      "stateMutability": "view",
      "type": "function",
      "constant": true
    },
    {
      "inputs": [
        {
          "internalType": "string",
          "name": "_newTokenURI",
          "type": "string"
        },
        {
          "internalType": "address",
          "name": "_receiver",
          "type": "address"
        },
        {
          "internalType": "uint256",
          "name": "_amount",
          "type": "uint256"
        }
      ],
      "name": "mintAchievement",
      "outputs": [],
      "stateMutability": "nonpayable",
      "type": "function"
    },
    {
      "inputs": [
        {
          "internalType": "uint256",
          "name": "_tokenId",
          "type": "uint256"
        },
        {
          "internalType": "uint256",
          "name": "_amount",
          "type": "uint256"
        }
      ],
      "name": "burnAchievement",
      "outputs": [],
      "stateMutability": "nonpayable",
      "type": "function"
    },
    {
      "inputs": [
        {
          "internalType": "uint256",
          "name": "_tokenId",
          "type": "uint256"
        }
      ],
      "name": "getAchievement",
      "outputs": [
        {
          "internalType": "string",
          "name": "",
          "type": "string"
        }
      ],
      "stateMutability": "view",
      "type": "function",
      "constant": true
    }
  ],
  "bytecode": "0x60806040523480156200001157600080fd5b506040518060200160405280600081525062000033816200007b60201b60201c565b5033600460006101000a81548173ffffffffffffffffffffffffffffffffffffffff021916908373ffffffffffffffffffffffffffffffffffffffff160217905550620003f1565b80600290816200008c91906200030a565b5050565b600081519050919050565b7f4e487b7100000000000000000000000000000000000000000000000000000000600052604160045260246000fd5b7f4e487b7100000000000000000000000000000000000000000000000000000000600052602260045260246000fd5b600060028204905060018216806200011257607f821691505b602082108103620001285762000127620000ca565b5b50919050565b60008190508160005260206000209050919050565b60006020601f8301049050919050565b600082821b905092915050565b600060088302620001927fffffffffffffffffffffffffffffffffffffffffffffffffffffffffffffffff8262000153565b6200019e868362000153565b95508019841693508086168417925050509392505050565b6000819050919050565b6000819050919050565b6000620001eb620001e5620001df84620001b6565b620001c0565b620001b6565b9050919050565b6000819050919050565b6200020783620001ca565b6200021f6200021682620001f2565b84845462000160565b825550505050565b600090565b6200023662000227565b62000243818484620001fc565b505050565b5b818110156200026b576200025f6000826200022c565b60018101905062000249565b5050565b601f821115620002ba5762000284816200012e565b6200028f8462000143565b810160208510156200029f578190505b620002b7620002ae8562000143565b83018262000248565b50505b505050565b600082821c905092915050565b6000620002df60001984600802620002bf565b1980831691505092915050565b6000620002fa8383620002cc565b9150826002028217905092915050565b620003158262000090565b67ffffffffffffffff8111156200033157620003306200009b565b5b6200033d8254620000f9565b6200034a8282856200026f565b600060209050601f8311600181146200038257600084156200036d578287015190505b620003798582620002ec565b865550620003e9565b601f19841662000392866200012e565b60005b82811015620003bc5784890151825560018201915060208501945060208101905062000395565b86831015620003dc5784890151620003d8601f891682620002cc565b8355505b6001600288020188555050505b505050505050565b61310280620004016000396000f3fe608060405234801561001057600080fd5b50600436106100b35760003560e01c8063a22cb46511610071578063a22cb465146101b0578063aa46a400146101cc578063e985e9c5146101ea578063f242432a1461021a578063f2ccc54314610236578063fc343c8114610266576100b3565b8062fdd58e146100b857806301ffc9a7146100e85780630e89341c146101185780630ed05a3b146101485780632eb2c2d6146101645780634e1273f414610180575b600080fd5b6100d260048036038101906100cd9190611a37565b610282565b6040516100df9190611a86565b60405180910390f35b61010260048036038101906100fd9190611af9565b61034a565b60405161010f9190611b41565b60405180910390f35b610132600480360381019061012d9190611b5c565b61042c565b60405161013f9190611c19565b60405180910390f35b610162600480360381019061015d9190611d70565b6104d1565b005b61017e60048036038101906101799190611f48565b610574565b005b61019a600480360381019061019591906120da565b610615565b6040516101a79190612210565b60405180910390f35b6101ca60048036038101906101c5919061225e565b61072e565b005b6101d4610744565b6040516101e19190611a86565b60405180910390f35b61020460048036038101906101ff919061229e565b610750565b6040516102119190611b41565b60405180910390f35b610234600480360381019061022f91906122de565b6107e4565b005b610250600480360381019061024b9190611b5c565b610885565b60405161025d9190611c19565b60405180910390f35b610280600480360381019061027b9190612375565b61092a565b005b60008073ffffffffffffffffffffffffffffffffffffffff168373ffffffffffffffffffffffffffffffffffffffff16036102f2576040517f08c379a00000000000000000000000000000000000000000000000000000000081526004016102e990612427565b60405180910390fd5b60008083815260200190815260200160002060008473ffffffffffffffffffffffffffffffffffffffff1673ffffffffffffffffffffffffffffffffffffffff16815260200190815260200160002054905092915050565b60007fd9b67a26000000000000000000000000000000000000000000000000000000007bffffffffffffffffffffffffffffffffffffffffffffffffffffffff1916827bffffffffffffffffffffffffffffffffffffffffffffffffffffffff1916148061041557507f0e89341c000000000000000000000000000000000000000000000000000000007bffffffffffffffffffffffffffffffffffffffffffffffffffffffff1916827bffffffffffffffffffffffffffffffffffffffffffffffffffffffff1916145b8061042557506104248261095b565b5b9050919050565b606060066000838152602001908152602001600020805461044c90612476565b80601f016020809104026020016040519081016040528092919081815260200182805461047890612476565b80156104c55780601f1061049a576101008083540402835291602001916104c5565b820191906000526020600020905b8154815290600101906020018083116104a857829003601f168201915b50505050509050919050565b60006104dd60036109c5565b905061051c600460009054906101000a900473ffffffffffffffffffffffffffffffffffffffff168284604051806020016040528060008152506109d3565b6105268185610b83565b6105306003610ba8565b61056e600460009054906101000a900473ffffffffffffffffffffffffffffffffffffffff16848385604051806020016040528060008152506107e4565b50505050565b61057c610bbe565b73ffffffffffffffffffffffffffffffffffffffff168573ffffffffffffffffffffffffffffffffffffffff1614806105c257506105c1856105bc610bbe565b610750565b5b610601576040517f08c379a00000000000000000000000000000000000000000000000000000000081526004016105f890612519565b60405180910390fd5b61060e8585858585610bc6565b5050505050565b6060815183511461065b576040517f08c379a0000000000000000000000000000000000000000000000000000000008152600401610652906125ab565b60405180910390fd5b6000835167ffffffffffffffff81111561067857610677611c45565b5b6040519080825280602002602001820160405280156106a65781602001602082028036833780820191505090505b50905060005b8451811015610723576106f38582815181106106cb576106ca6125cb565b5b60200260200101518583815181106106e6576106e56125cb565b5b6020026020010151610282565b828281518110610706576107056125cb565b5b6020026020010181815250508061071c90612629565b90506106ac565b508091505092915050565b610740610739610bbe565b8383610ee7565b5050565b60038060000154905081565b6000600160008473ffffffffffffffffffffffffffffffffffffffff1673ffffffffffffffffffffffffffffffffffffffff16815260200190815260200160002060008373ffffffffffffffffffffffffffffffffffffffff1673ffffffffffffffffffffffffffffffffffffffff16815260200190815260200160002060009054906101000a900460ff16905092915050565b6107ec610bbe565b73ffffffffffffffffffffffffffffffffffffffff168573ffffffffffffffffffffffffffffffffffffffff16148061083257506108318561082c610bbe565b610750565b5b610871576040517f08c379a000000000000000000000000000000000000000000000000000000000815260040161086890612519565b60405180910390fd5b61087e8585858585611053565b5050505050565b60606006600083815260200190815260200160002080546108a590612476565b80601f01602080910402602001604051908101604052809291908181526020018280546108d190612476565b801561091e5780601f106108f35761010080835404028352916020019161091e565b820191906000526020600020905b81548152906001019060200180831161090157829003601f168201915b50505050509050919050565b610957600460009054906101000a900473ffffffffffffffffffffffffffffffffffffffff1683836112ee565b5050565b60007f01ffc9a7000000000000000000000000000000000000000000000000000000007bffffffffffffffffffffffffffffffffffffffffffffffffffffffff1916827bffffffffffffffffffffffffffffffffffffffffffffffffffffffff1916149050919050565b600081600001549050919050565b600073ffffffffffffffffffffffffffffffffffffffff168473ffffffffffffffffffffffffffffffffffffffff1603610a42576040517f08c379a0000000000000000000000000000000000000000000000000000000008152600401610a39906126e3565b60405180910390fd5b6000610a4c610bbe565b90506000610a5985611534565b90506000610a6685611534565b9050610a77836000898585896115ae565b8460008088815260200190815260200160002060008973ffffffffffffffffffffffffffffffffffffffff1673ffffffffffffffffffffffffffffffffffffffff1681526020019081526020016000206000828254610ad69190612703565b925050819055508673ffffffffffffffffffffffffffffffffffffffff16600073ffffffffffffffffffffffffffffffffffffffff168473ffffffffffffffffffffffffffffffffffffffff167fc3d58168c5ae7397731d063d5bbf3d657854427343f4c083240f7aacaa2d0f628989604051610b54929190612737565b60405180910390a4610b6b836000898585896115b6565b610b7a836000898989896115be565b50505050505050565b80600660008481526020019081526020016000209081610ba3919061290c565b505050565b6001816000016000828254019250508190555050565b600033905090565b8151835114610c0a576040517f08c379a0000000000000000000000000000000000000000000000000000000008152600401610c0190612a50565b60405180910390fd5b600073ffffffffffffffffffffffffffffffffffffffff168473ffffffffffffffffffffffffffffffffffffffff1603610c79576040517f08c379a0000000000000000000000000000000000000000000000000000000008152600401610c7090612ae2565b60405180910390fd5b6000610c83610bbe565b9050610c938187878787876115ae565b60005b8451811015610e44576000858281518110610cb457610cb36125cb565b5b602002602001015190506000858381518110610cd357610cd26125cb565b5b60200260200101519050600080600084815260200190815260200160002060008b73ffffffffffffffffffffffffffffffffffffffff1673ffffffffffffffffffffffffffffffffffffffff16815260200190815260200160002054905081811015610d74576040517f08c379a0000000000000000000000000000000000000000000000000000000008152600401610d6b90612b74565b60405180910390fd5b81810360008085815260200190815260200160002060008c73ffffffffffffffffffffffffffffffffffffffff1673ffffffffffffffffffffffffffffffffffffffff168152602001908152602001600020819055508160008085815260200190815260200160002060008b73ffffffffffffffffffffffffffffffffffffffff1673ffffffffffffffffffffffffffffffffffffffff1681526020019081526020016000206000828254610e299190612703565b9250508190555050505080610e3d90612629565b9050610c96565b508473ffffffffffffffffffffffffffffffffffffffff168673ffffffffffffffffffffffffffffffffffffffff168273ffffffffffffffffffffffffffffffffffffffff167f4a39dc06d4c0dbc64b70af90fd698a233a518aa5d07e595d983b8c0526c8f7fb8787604051610ebb929190612b94565b60405180910390a4610ed18187878787876115b6565b610edf818787878787611795565b505050505050565b8173ffffffffffffffffffffffffffffffffffffffff168373ffffffffffffffffffffffffffffffffffffffff1603610f55576040517f08c379a0000000000000000000000000000000000000000000000000000000008152600401610f4c90612c3d565b60405180910390fd5b80600160008573ffffffffffffffffffffffffffffffffffffffff1673ffffffffffffffffffffffffffffffffffffffff16815260200190815260200160002060008473ffffffffffffffffffffffffffffffffffffffff1673ffffffffffffffffffffffffffffffffffffffff16815260200190815260200160002060006101000a81548160ff0219169083151502179055508173ffffffffffffffffffffffffffffffffffffffff168373ffffffffffffffffffffffffffffffffffffffff167f17307eab39ab6107e8899845ad3d59bd9653f200f220920489ca2b5937696c31836040516110469190611b41565b60405180910390a3505050565b600073ffffffffffffffffffffffffffffffffffffffff168473ffffffffffffffffffffffffffffffffffffffff16036110c2576040517f08c379a00000000000000000000000000000000000000000000000000000000081526004016110b990612ae2565b60405180910390fd5b60006110cc610bbe565b905060006110d985611534565b905060006110e685611534565b90506110f68389898585896115ae565b600080600088815260200190815260200160002060008a73ffffffffffffffffffffffffffffffffffffffff1673ffffffffffffffffffffffffffffffffffffffff1681526020019081526020016000205490508581101561118d576040517f08c379a000000000000000000000000000000000000000000000000000000000815260040161118490612b74565b60405180910390fd5b85810360008089815260200190815260200160002060008b73ffffffffffffffffffffffffffffffffffffffff1673ffffffffffffffffffffffffffffffffffffffff168152602001908152602001600020819055508560008089815260200190815260200160002060008a73ffffffffffffffffffffffffffffffffffffffff1673ffffffffffffffffffffffffffffffffffffffff16815260200190815260200160002060008282546112429190612703565b925050819055508773ffffffffffffffffffffffffffffffffffffffff168973ffffffffffffffffffffffffffffffffffffffff168573ffffffffffffffffffffffffffffffffffffffff167fc3d58168c5ae7397731d063d5bbf3d657854427343f4c083240f7aacaa2d0f628a8a6040516112bf929190612737565b60405180910390a46112d5848a8a86868a6115b6565b6112e3848a8a8a8a8a6115be565b505050505050505050565b600073ffffffffffffffffffffffffffffffffffffffff168373ffffffffffffffffffffffffffffffffffffffff160361135d576040517f08c379a000000000000000000000000000000000000000000000000000000000815260040161135490612ccf565b60405180910390fd5b6000611367610bbe565b9050600061137484611534565b9050600061138184611534565b90506113a1838760008585604051806020016040528060008152506115ae565b600080600087815260200190815260200160002060008873ffffffffffffffffffffffffffffffffffffffff1673ffffffffffffffffffffffffffffffffffffffff16815260200190815260200160002054905084811015611438576040517f08c379a000000000000000000000000000000000000000000000000000000000815260040161142f90612d61565b60405180910390fd5b84810360008088815260200190815260200160002060008973ffffffffffffffffffffffffffffffffffffffff1673ffffffffffffffffffffffffffffffffffffffff16815260200190815260200160002081905550600073ffffffffffffffffffffffffffffffffffffffff168773ffffffffffffffffffffffffffffffffffffffff168573ffffffffffffffffffffffffffffffffffffffff167fc3d58168c5ae7397731d063d5bbf3d657854427343f4c083240f7aacaa2d0f628989604051611505929190612737565b60405180910390a461152b848860008686604051806020016040528060008152506115b6565b50505050505050565b60606000600167ffffffffffffffff81111561155357611552611c45565b5b6040519080825280602002602001820160405280156115815781602001602082028036833780820191505090505b5090508281600081518110611599576115986125cb565b5b60200260200101818152505080915050919050565b505050505050565b505050505050565b6115dd8473ffffffffffffffffffffffffffffffffffffffff1661196c565b1561178d578373ffffffffffffffffffffffffffffffffffffffff1663f23a6e6187878686866040518663ffffffff1660e01b8152600401611623959493929190612de5565b6020604051808303816000875af192505050801561165f57506040513d601f19601f8201168201806040525081019061165c9190612e54565b60015b6117045761166b612e8e565b806308c379a0036116c7575061167f612eb0565b8061168a57506116c9565b806040517f08c379a00000000000000000000000000000000000000000000000000000000081526004016116be9190611c19565b60405180910390fd5b505b6040517f08c379a00000000000000000000000000000000000000000000000000000000081526004016116fb90612fb2565b60405180910390fd5b63f23a6e6160e01b7bffffffffffffffffffffffffffffffffffffffffffffffffffffffff1916817bffffffffffffffffffffffffffffffffffffffffffffffffffffffff19161461178b576040517f08c379a000000000000000000000000000000000000000000000000000000000815260040161178290613044565b60405180910390fd5b505b505050505050565b6117b48473ffffffffffffffffffffffffffffffffffffffff1661196c565b15611964578373ffffffffffffffffffffffffffffffffffffffff1663bc197c8187878686866040518663ffffffff1660e01b81526004016117fa959493929190613064565b6020604051808303816000875af192505050801561183657506040513d601f19601f820116820180604052508101906118339190612e54565b60015b6118db57611842612e8e565b806308c379a00361189e5750611856612eb0565b8061186157506118a0565b806040517f08c379a00000000000000000000000000000000000000000000000000000000081526004016118959190611c19565b60405180910390fd5b505b6040517f08c379a00000000000000000000000000000000000000000000000000000000081526004016118d290612fb2565b60405180910390fd5b63bc197c8160e01b7bffffffffffffffffffffffffffffffffffffffffffffffffffffffff1916817bffffffffffffffffffffffffffffffffffffffffffffffffffffffff191614611962576040517f08c379a000000000000000000000000000000000000000000000000000000000815260040161195990613044565b60405180910390fd5b505b505050505050565b6000808273ffffffffffffffffffffffffffffffffffffffff163b119050919050565b6000604051905090565b600080fd5b600080fd5b600073ffffffffffffffffffffffffffffffffffffffff82169050919050565b60006119ce826119a3565b9050919050565b6119de816119c3565b81146119e957600080fd5b50565b6000813590506119fb816119d5565b92915050565b6000819050919050565b611a1481611a01565b8114611a1f57600080fd5b50565b600081359050611a3181611a0b565b92915050565b60008060408385031215611a4e57611a4d611999565b5b6000611a5c858286016119ec565b9250506020611a6d85828601611a22565b9150509250929050565b611a8081611a01565b82525050565b6000602082019050611a9b6000830184611a77565b92915050565b60007fffffffff0000000000000000000000000000000000000000000000000000000082169050919050565b611ad681611aa1565b8114611ae157600080fd5b50565b600081359050611af381611acd565b92915050565b600060208284031215611b0f57611b0e611999565b5b6000611b1d84828501611ae4565b91505092915050565b60008115159050919050565b611b3b81611b26565b82525050565b6000602082019050611b566000830184611b32565b92915050565b600060208284031215611b7257611b71611999565b5b6000611b8084828501611a22565b91505092915050565b600081519050919050565b600082825260208201905092915050565b60005b83811015611bc3578082015181840152602081019050611ba8565b60008484015250505050565b6000601f19601f8301169050919050565b6000611beb82611b89565b611bf58185611b94565b9350611c05818560208601611ba5565b611c0e81611bcf565b840191505092915050565b60006020820190508181036000830152611c338184611be0565b905092915050565b600080fd5b600080fd5b7f4e487b7100000000000000000000000000000000000000000000000000000000600052604160045260246000fd5b611c7d82611bcf565b810181811067ffffffffffffffff82111715611c9c57611c9b611c45565b5b80604052505050565b6000611caf61198f565b9050611cbb8282611c74565b919050565b600067ffffffffffffffff821115611cdb57611cda611c45565b5b611ce482611bcf565b9050602081019050919050565b82818337600083830152505050565b6000611d13611d0e84611cc0565b611ca5565b905082815260208101848484011115611d2f57611d2e611c40565b5b611d3a848285611cf1565b509392505050565b600082601f830112611d5757611d56611c3b565b5b8135611d67848260208601611d00565b91505092915050565b600080600060608486031215611d8957611d88611999565b5b600084013567ffffffffffffffff811115611da757611da661199e565b5b611db386828701611d42565b9350506020611dc4868287016119ec565b9250506040611dd586828701611a22565b9150509250925092565b600067ffffffffffffffff821115611dfa57611df9611c45565b5b602082029050602081019050919050565b600080fd5b6000611e23611e1e84611ddf565b611ca5565b90508083825260208201905060208402830185811115611e4657611e45611e0b565b5b835b81811015611e6f5780611e5b8882611a22565b845260208401935050602081019050611e48565b5050509392505050565b600082601f830112611e8e57611e8d611c3b565b5b8135611e9e848260208601611e10565b91505092915050565b600067ffffffffffffffff821115611ec257611ec1611c45565b5b611ecb82611bcf565b9050602081019050919050565b6000611eeb611ee684611ea7565b611ca5565b905082815260208101848484011115611f0757611f06611c40565b5b611f12848285611cf1565b509392505050565b600082601f830112611f2f57611f2e611c3b565b5b8135611f3f848260208601611ed8565b91505092915050565b600080600080600060a08688031215611f6457611f63611999565b5b6000611f72888289016119ec565b9550506020611f83888289016119ec565b945050604086013567ffffffffffffffff811115611fa457611fa361199e565b5b611fb088828901611e79565b935050606086013567ffffffffffffffff811115611fd157611fd061199e565b5b611fdd88828901611e79565b925050608086013567ffffffffffffffff811115611ffe57611ffd61199e565b5b61200a88828901611f1a565b9150509295509295909350565b600067ffffffffffffffff82111561203257612031611c45565b5b602082029050602081019050919050565b600061205661205184612017565b611ca5565b9050808382526020820190506020840283018581111561207957612078611e0b565b5b835b818110156120a2578061208e88826119ec565b84526020840193505060208101905061207b565b5050509392505050565b600082601f8301126120c1576120c0611c3b565b5b81356120d1848260208601612043565b91505092915050565b600080604083850312156120f1576120f0611999565b5b600083013567ffffffffffffffff81111561210f5761210e61199e565b5b61211b858286016120ac565b925050602083013567ffffffffffffffff81111561213c5761213b61199e565b5b61214885828601611e79565b9150509250929050565b600081519050919050565b600082825260208201905092915050565b6000819050602082019050919050565b61218781611a01565b82525050565b6000612199838361217e565b60208301905092915050565b6000602082019050919050565b60006121bd82612152565b6121c7818561215d565b93506121d28361216e565b8060005b838110156122035781516121ea888261218d565b97506121f5836121a5565b9250506001810190506121d6565b5085935050505092915050565b6000602082019050818103600083015261222a81846121b2565b905092915050565b61223b81611b26565b811461224657600080fd5b50565b60008135905061225881612232565b92915050565b6000806040838503121561227557612274611999565b5b6000612283858286016119ec565b925050602061229485828601612249565b9150509250929050565b600080604083850312156122b5576122b4611999565b5b60006122c3858286016119ec565b92505060206122d4858286016119ec565b9150509250929050565b600080600080600060a086880312156122fa576122f9611999565b5b6000612308888289016119ec565b9550506020612319888289016119ec565b945050604061232a88828901611a22565b935050606061233b88828901611a22565b925050608086013567ffffffffffffffff81111561235c5761235b61199e565b5b61236888828901611f1a565b9150509295509295909350565b6000806040838503121561238c5761238b611999565b5b600061239a85828601611a22565b92505060206123ab85828601611a22565b9150509250929050565b7f455243313135353a2061646472657373207a65726f206973206e6f742061207660008201527f616c6964206f776e657200000000000000000000000000000000000000000000602082015250565b6000612411602a83611b94565b915061241c826123b5565b604082019050919050565b6000602082019050818103600083015261244081612404565b9050919050565b7f4e487b7100000000000000000000000000000000000000000000000000000000600052602260045260246000fd5b6000600282049050600182168061248e57607f821691505b6020821081036124a1576124a0612447565b5b50919050565b7f455243313135353a2063616c6c6572206973206e6f7420746f6b656e206f776e60008201527f6572206f7220617070726f766564000000000000000000000000000000000000602082015250565b6000612503602e83611b94565b915061250e826124a7565b604082019050919050565b60006020820190508181036000830152612532816124f6565b9050919050565b7f455243313135353a206163636f756e747320616e6420696473206c656e67746860008201527f206d69736d617463680000000000000000000000000000000000000000000000602082015250565b6000612595602983611b94565b91506125a082612539565b604082019050919050565b600060208201905081810360008301526125c481612588565b9050919050565b7f4e487b7100000000000000000000000000000000000000000000000000000000600052603260045260246000fd5b7f4e487b7100000000000000000000000000000000000000000000000000000000600052601160045260246000fd5b600061263482611a01565b91507fffffffffffffffffffffffffffffffffffffffffffffffffffffffffffffffff8203612666576126656125fa565b5b600182019050919050565b7f455243313135353a206d696e7420746f20746865207a65726f2061646472657360008201527f7300000000000000000000000000000000000000000000000000000000000000602082015250565b60006126cd602183611b94565b91506126d882612671565b604082019050919050565b600060208201905081810360008301526126fc816126c0565b9050919050565b600061270e82611a01565b915061271983611a01565b9250828201905080821115612731576127306125fa565b5b92915050565b600060408201905061274c6000830185611a77565b6127596020830184611a77565b9392505050565b60008190508160005260206000209050919050565b60006020601f8301049050919050565b600082821b905092915050565b6000600883026127c27fffffffffffffffffffffffffffffffffffffffffffffffffffffffffffffffff82612785565b6127cc8683612785565b95508019841693508086168417925050509392505050565b6000819050919050565b60006128096128046127ff84611a01565b6127e4565b611a01565b9050919050565b6000819050919050565b612823836127ee565b61283761282f82612810565b848454612792565b825550505050565b600090565b61284c61283f565b61285781848461281a565b505050565b5b8181101561287b57612870600082612844565b60018101905061285d565b5050565b601f8211156128c05761289181612760565b61289a84612775565b810160208510156128a9578190505b6128bd6128b585612775565b83018261285c565b50505b505050565b600082821c905092915050565b60006128e3600019846008026128c5565b1980831691505092915050565b60006128fc83836128d2565b9150826002028217905092915050565b61291582611b89565b67ffffffffffffffff81111561292e5761292d611c45565b5b6129388254612476565b61294382828561287f565b600060209050601f8311600181146129765760008415612964578287015190505b61296e85826128f0565b8655506129d6565b601f19841661298486612760565b60005b828110156129ac57848901518255600182019150602085019450602081019050612987565b868310156129c957848901516129c5601f8916826128d2565b8355505b6001600288020188555050505b505050505050565b7f455243313135353a2069647320616e6420616d6f756e7473206c656e6774682060008201527f6d69736d61746368000000000000000000000000000000000000000000000000602082015250565b6000612a3a602883611b94565b9150612a45826129de565b604082019050919050565b60006020820190508181036000830152612a6981612a2d565b9050919050565b7f455243313135353a207472616e7366657220746f20746865207a65726f20616460008201527f6472657373000000000000000000000000000000000000000000000000000000602082015250565b6000612acc602583611b94565b9150612ad782612a70565b604082019050919050565b60006020820190508181036000830152612afb81612abf565b9050919050565b7f455243313135353a20696e73756666696369656e742062616c616e636520666f60008201527f72207472616e7366657200000000000000000000000000000000000000000000602082015250565b6000612b5e602a83611b94565b9150612b6982612b02565b604082019050919050565b60006020820190508181036000830152612b8d81612b51565b9050919050565b60006040820190508181036000830152612bae81856121b2565b90508181036020830152612bc281846121b2565b90509392505050565b7f455243313135353a2073657474696e6720617070726f76616c2073746174757360008201527f20666f722073656c660000000000000000000000000000000000000000000000602082015250565b6000612c27602983611b94565b9150612c3282612bcb565b604082019050919050565b60006020820190508181036000830152612c5681612c1a565b9050919050565b7f455243313135353a206275726e2066726f6d20746865207a65726f206164647260008201527f6573730000000000000000000000000000000000000000000000000000000000602082015250565b6000612cb9602383611b94565b9150612cc482612c5d565b604082019050919050565b60006020820190508181036000830152612ce881612cac565b9050919050565b7f455243313135353a206275726e20616d6f756e7420657863656564732062616c60008201527f616e636500000000000000000000000000000000000000000000000000000000602082015250565b6000612d4b602483611b94565b9150612d5682612cef565b604082019050919050565b60006020820190508181036000830152612d7a81612d3e565b9050919050565b612d8a816119c3565b82525050565b600081519050919050565b600082825260208201905092915050565b6000612db782612d90565b612dc18185612d9b565b9350612dd1818560208601611ba5565b612dda81611bcf565b840191505092915050565b600060a082019050612dfa6000830188612d81565b612e076020830187612d81565b612e146040830186611a77565b612e216060830185611a77565b8181036080830152612e338184612dac565b90509695505050505050565b600081519050612e4e81611acd565b92915050565b600060208284031215612e6a57612e69611999565b5b6000612e7884828501612e3f565b91505092915050565b60008160e01c9050919050565b600060033d1115612ead5760046000803e612eaa600051612e81565b90505b90565b600060443d10612f3d57612ec261198f565b60043d036004823e80513d602482011167ffffffffffffffff82111715612eea575050612f3d565b808201805167ffffffffffffffff811115612f085750505050612f3d565b80602083010160043d038501811115612f25575050505050612f3d565b612f3482602001850186611c74565b82955050505050505b90565b7f455243313135353a207472616e7366657220746f206e6f6e2d4552433131353560008201527f526563656976657220696d706c656d656e746572000000000000000000000000602082015250565b6000612f9c603483611b94565b9150612fa782612f40565b604082019050919050565b60006020820190508181036000830152612fcb81612f8f565b9050919050565b7f455243313135353a204552433131353552656365697665722072656a6563746560008201527f6420746f6b656e73000000000000000000000000000000000000000000000000602082015250565b600061302e602883611b94565b915061303982612fd2565b604082019050919050565b6000602082019050818103600083015261305d81613021565b9050919050565b600060a0820190506130796000830188612d81565b6130866020830187612d81565b818103604083015261309881866121b2565b905081810360608301526130ac81856121b2565b905081810360808301526130c08184612dac565b9050969550505050505056fea26469706673582212205ef5d095d10781ada679a39db25e52be07dd49d4fea0bd54df2845c8f65275ae64736f6c63430008130033",
  "immutableReferences": {},
  "source": "// SPDX-License-Identifier: GPL-3.0\r\npragma solidity ^0.8.15;\r\n\r\nimport \"../node_modules/@openzeppelin/contracts/token/ERC1155/ERC1155.sol\";\r\nimport \"../node_modules/@openzeppelin/contracts/utils/Counters.sol\";\r\n\r\ncontract DellFactory is ERC1155 {\r\n    using Counters for Counters.Counter;\r\n    Counters.Counter public _tokenIds;\r\n\r\n    // State Variables\r\n    address private owner;\r\n    string private _uri;\r\n    mapping(uint256 => string) private _tokenURIs;\r\n\r\n    // Modifier\r\n    modifier isOwner() {\r\n        require(owner == msg.sender, \"Not owner!\");\r\n        _;\r\n    }\r\n\r\n    // Constructor\r\n    constructor() ERC1155(\"\") {\r\n        owner = msg.sender;\r\n    }\r\n\r\n    // Functions\r\n    function _setTokenUri(uint256 tokenId, string memory tokenURI) private {\r\n        _tokenURIs[tokenId] = tokenURI;\r\n    }\r\n\r\n    function uri(uint256 tokenId) public view override returns (string memory) {\r\n        return (_tokenURIs[tokenId]);\r\n    }\r\n\r\n    function mintAchievement(\r\n        string memory _newTokenURI,\r\n        address _receiver,\r\n        uint256 _amount\r\n    ) public {\r\n        // Picking the actual token id\r\n        uint256 newNFTId = _tokenIds.current();\r\n\r\n        // Creating a NFT to the owner\r\n        _mint(owner, newNFTId, _amount, \"\");\r\n\r\n        // Setting the token URI for the NFT just minted\r\n        _setTokenUri(newNFTId, _newTokenURI);\r\n\r\n        // Increasing the token Id\r\n        _tokenIds.increment();\r\n\r\n        // Trasfering the NFT to the receiver\r\n        safeTransferFrom(owner, _receiver, newNFTId, _amount, \"\");\r\n    }\r\n\r\n    function burnAchievement(uint256 _tokenId, uint256 _amount) public {\r\n        _burn(owner, _tokenId, _amount);\r\n    }\r\n\r\n    function getAchievement(\r\n        uint256 _tokenId\r\n    ) public view returns (string memory) {\r\n        return _tokenURIs[_tokenId];\r\n    }\r\n}\r\n",
  "sourcePath": "C:\\Users\\Rogerio\\Documents\\GitHub\\ProjetoDell\\2023-1a-t03-grupo5\\src\\Blockchain\\contracts\\DellFactory.sol",
  "compiler": {
    "name": "solc",
    "version": "0.8.19+commit.7dd6d404.Emscripten.clang"
  },
  "schemaVersion": "3.4.13",
  "updatedAt": "2023-04-04T19:42:42.310Z",
  "networkType": "ethereum",
  "devdoc": {
    "events": {
      "ApprovalForAll(address,address,bool)": {
        "details": "Emitted when `account` grants or revokes permission to `operator` to transfer their tokens, according to `approved`."
      },
      "TransferBatch(address,address,address,uint256[],uint256[])": {
        "details": "Equivalent to multiple {TransferSingle} events, where `operator`, `from` and `to` are the same for all transfers."
      },
      "TransferSingle(address,address,address,uint256,uint256)": {
        "details": "Emitted when `value` tokens of token type `id` are transferred from `from` to `to` by `operator`."
      },
      "URI(string,uint256)": {
        "details": "Emitted when the URI for token type `id` changes to `value`, if it is a non-programmatic URI. If an {URI} event was emitted for `id`, the standard https://eips.ethereum.org/EIPS/eip-1155#metadata-extensions[guarantees] that `value` will equal the value returned by {IERC1155MetadataURI-uri}."
      }
    },
    "kind": "dev",
    "methods": {
      "balanceOf(address,uint256)": {
        "details": "See {IERC1155-balanceOf}. Requirements: - `account` cannot be the zero address."
      },
      "balanceOfBatch(address[],uint256[])": {
        "details": "See {IERC1155-balanceOfBatch}. Requirements: - `accounts` and `ids` must have the same length."
      },
      "isApprovedForAll(address,address)": {
        "details": "See {IERC1155-isApprovedForAll}."
      },
      "safeBatchTransferFrom(address,address,uint256[],uint256[],bytes)": {
        "details": "See {IERC1155-safeBatchTransferFrom}."
      },
      "safeTransferFrom(address,address,uint256,uint256,bytes)": {
        "details": "See {IERC1155-safeTransferFrom}."
      },
      "setApprovalForAll(address,bool)": {
        "details": "See {IERC1155-setApprovalForAll}."
      },
      "supportsInterface(bytes4)": {
        "details": "See {IERC165-supportsInterface}."
      }
    },
    "version": 1
  },
  "userdoc": {
    "kind": "user",
    "methods": {},
    "version": 1
  }
}