{
  "contractName": "DellFactory",
  "abi": [
    {
      "inputs": [],
      "stateMutability": "nonpayable",
      "type": "constructor"
    },
    {
      "anonymous": false,
      "inputs": [
        {
          "indexed": true,
          "internalType": "address",
          "name": "account",
          "type": "address"
        },
        {
          "indexed": true,
          "internalType": "address",
          "name": "operator",
          "type": "address"
        },
        {
          "indexed": false,
          "internalType": "bool",
          "name": "approved",
          "type": "bool"
        }
      ],
      "name": "ApprovalForAll",
      "type": "event"
    },
    {
      "anonymous": false,
      "inputs": [
        {
          "indexed": true,
          "internalType": "address",
          "name": "operator",
          "type": "address"
        },
        {
          "indexed": true,
          "internalType": "address",
          "name": "from",
          "type": "address"
        },
        {
          "indexed": true,
          "internalType": "address",
          "name": "to",
          "type": "address"
        },
        {
          "indexed": false,
          "internalType": "uint256[]",
          "name": "ids",
          "type": "uint256[]"
        },
        {
          "indexed": false,
          "internalType": "uint256[]",
          "name": "values",
          "type": "uint256[]"
        }
      ],
      "name": "TransferBatch",
      "type": "event"
    },
    {
      "anonymous": false,
      "inputs": [
        {
          "indexed": true,
          "internalType": "address",
          "name": "operator",
          "type": "address"
        },
        {
          "indexed": true,
          "internalType": "address",
          "name": "from",
          "type": "address"
        },
        {
          "indexed": true,
          "internalType": "address",
          "name": "to",
          "type": "address"
        },
        {
          "indexed": false,
          "internalType": "uint256",
          "name": "id",
          "type": "uint256"
        },
        {
          "indexed": false,
          "internalType": "uint256",
          "name": "value",
          "type": "uint256"
        }
      ],
      "name": "TransferSingle",
      "type": "event"
    },
    {
      "anonymous": false,
      "inputs": [
        {
          "indexed": false,
          "internalType": "string",
          "name": "value",
          "type": "string"
        },
        {
          "indexed": true,
          "internalType": "uint256",
          "name": "id",
          "type": "uint256"
        }
      ],
      "name": "URI",
      "type": "event"
    },
    {
      "inputs": [],
      "name": "_tokenIds",
      "outputs": [
        {
          "internalType": "uint256",
          "name": "_value",
          "type": "uint256"
        }
      ],
      "stateMutability": "view",
      "type": "function",
      "constant": true
    },
    {
      "inputs": [
        {
          "internalType": "address",
          "name": "account",
          "type": "address"
        },
        {
          "internalType": "uint256",
          "name": "id",
          "type": "uint256"
        }
      ],
      "name": "balanceOf",
      "outputs": [
        {
          "internalType": "uint256",
          "name": "",
          "type": "uint256"
        }
      ],
      "stateMutability": "view",
      "type": "function",
      "constant": true
    },
    {
      "inputs": [
        {
          "internalType": "address[]",
          "name": "accounts",
          "type": "address[]"
        },
        {
          "internalType": "uint256[]",
          "name": "ids",
          "type": "uint256[]"
        }
      ],
      "name": "balanceOfBatch",
      "outputs": [
        {
          "internalType": "uint256[]",
          "name": "",
          "type": "uint256[]"
        }
      ],
      "stateMutability": "view",
      "type": "function",
      "constant": true
    },
    {
      "inputs": [
        {
          "internalType": "address",
          "name": "account",
          "type": "address"
        },
        {
          "internalType": "address",
          "name": "operator",
          "type": "address"
        }
      ],
      "name": "isApprovedForAll",
      "outputs": [
        {
          "internalType": "bool",
          "name": "",
          "type": "bool"
        }
      ],
      "stateMutability": "view",
      "type": "function",
      "constant": true
    },
    {
      "inputs": [
        {
          "internalType": "address",
          "name": "from",
          "type": "address"
        },
        {
          "internalType": "address",
          "name": "to",
          "type": "address"
        },
        {
          "internalType": "uint256[]",
          "name": "ids",
          "type": "uint256[]"
        },
        {
          "internalType": "uint256[]",
          "name": "amounts",
          "type": "uint256[]"
        },
        {
          "internalType": "bytes",
          "name": "data",
          "type": "bytes"
        }
      ],
      "name": "safeBatchTransferFrom",
      "outputs": [],
      "stateMutability": "nonpayable",
      "type": "function"
    },
    {
      "inputs": [
        {
          "internalType": "address",
          "name": "from",
          "type": "address"
        },
        {
          "internalType": "address",
          "name": "to",
          "type": "address"
        },
        {
          "internalType": "uint256",
          "name": "id",
          "type": "uint256"
        },
        {
          "internalType": "uint256",
          "name": "amount",
          "type": "uint256"
        },
        {
          "internalType": "bytes",
          "name": "data",
          "type": "bytes"
        }
      ],
      "name": "safeTransferFrom",
      "outputs": [],
      "stateMutability": "nonpayable",
      "type": "function"
    },
    {
      "inputs": [
        {
          "internalType": "address",
          "name": "operator",
          "type": "address"
        },
        {
          "internalType": "bool",
          "name": "approved",
          "type": "bool"
        }
      ],
      "name": "setApprovalForAll",
      "outputs": [],
      "stateMutability": "nonpayable",
      "type": "function"
    },
    {
      "inputs": [
        {
          "internalType": "bytes4",
          "name": "interfaceId",
          "type": "bytes4"
        }
      ],
      "name": "supportsInterface",
      "outputs": [
        {
          "internalType": "bool",
          "name": "",
          "type": "bool"
        }
      ],
      "stateMutability": "view",
      "type": "function",
      "constant": true
    },
    {
      "inputs": [
        {
          "internalType": "uint256",
          "name": "tokenId",
          "type": "uint256"
        }
      ],
      "name": "uri",
      "outputs": [
        {
          "internalType": "string",
          "name": "",
          "type": "string"
        }
      ],
      "stateMutability": "view",
      "type": "function",
      "constant": true
    },
    {
      "inputs": [
        {
          "internalType": "string",
          "name": "_newTokenURI",
          "type": "string"
        },
        {
          "internalType": "address",
          "name": "_receiver",
          "type": "address"
        },
        {
          "internalType": "uint256",
          "name": "_amount",
          "type": "uint256"
        }
      ],
      "name": "mintAchievement",
      "outputs": [],
      "stateMutability": "nonpayable",
      "type": "function"
    }
  ],
  "bytecode": "0x60806040523480156200001157600080fd5b506040518060200160405280600081525062000033816200007b60201b60201c565b5033600460006101000a81548173ffffffffffffffffffffffffffffffffffffffff021916908373ffffffffffffffffffffffffffffffffffffffff160217905550620003f1565b80600290816200008c91906200030a565b5050565b600081519050919050565b7f4e487b7100000000000000000000000000000000000000000000000000000000600052604160045260246000fd5b7f4e487b7100000000000000000000000000000000000000000000000000000000600052602260045260246000fd5b600060028204905060018216806200011257607f821691505b602082108103620001285762000127620000ca565b5b50919050565b60008190508160005260206000209050919050565b60006020601f8301049050919050565b600082821b905092915050565b600060088302620001927fffffffffffffffffffffffffffffffffffffffffffffffffffffffffffffffff8262000153565b6200019e868362000153565b95508019841693508086168417925050509392505050565b6000819050919050565b6000819050919050565b6000620001eb620001e5620001df84620001b6565b620001c0565b620001b6565b9050919050565b6000819050919050565b6200020783620001ca565b6200021f6200021682620001f2565b84845462000160565b825550505050565b600090565b6200023662000227565b62000243818484620001fc565b505050565b5b818110156200026b576200025f6000826200022c565b60018101905062000249565b5050565b601f821115620002ba5762000284816200012e565b6200028f8462000143565b810160208510156200029f578190505b620002b7620002ae8562000143565b83018262000248565b50505b505050565b600082821c905092915050565b6000620002df60001984600802620002bf565b1980831691505092915050565b6000620002fa8383620002cc565b9150826002028217905092915050565b620003158262000090565b67ffffffffffffffff8111156200033157620003306200009b565b5b6200033d8254620000f9565b6200034a8282856200026f565b600060209050601f8311600181146200038257600084156200036d578287015190505b620003798582620002ec565b865550620003e9565b601f19841662000392866200012e565b60005b82811015620003bc5784890151825560018201915060208501945060208101905062000395565b86831015620003dc5784890151620003d8601f891682620002cc565b8355505b6001600288020188555050505b505050505050565b612d1c80620004016000396000f3fe608060405234801561001057600080fd5b506004361061009d5760003560e01c80634e1273f4116100665780634e1273f41461016a578063a22cb4651461019a578063aa46a400146101b6578063e985e9c5146101d4578063f242432a146102045761009d565b8062fdd58e146100a257806301ffc9a7146100d25780630e89341c146101025780630ed05a3b146101325780632eb2c2d61461014e575b600080fd5b6100bc60048036038101906100b79190611749565b610220565b6040516100c99190611798565b60405180910390f35b6100ec60048036038101906100e7919061180b565b6102e8565b6040516100f99190611853565b60405180910390f35b61011c6004803603810190610117919061186e565b6103ca565b604051610129919061192b565b60405180910390f35b61014c60048036038101906101479190611a82565b61046f565b005b61016860048036038101906101639190611c5a565b6105a2565b005b610184600480360381019061017f9190611dec565b610643565b6040516101919190611f22565b60405180910390f35b6101b460048036038101906101af9190611f70565b61075c565b005b6101be610772565b6040516101cb9190611798565b60405180910390f35b6101ee60048036038101906101e99190611fb0565b61077e565b6040516101fb9190611853565b60405180910390f35b61021e60048036038101906102199190611ff0565b610812565b005b60008073ffffffffffffffffffffffffffffffffffffffff168373ffffffffffffffffffffffffffffffffffffffff1603610290576040517f08c379a0000000000000000000000000000000000000000000000000000000008152600401610287906120f9565b60405180910390fd5b60008083815260200190815260200160002060008473ffffffffffffffffffffffffffffffffffffffff1673ffffffffffffffffffffffffffffffffffffffff16815260200190815260200160002054905092915050565b60007fd9b67a26000000000000000000000000000000000000000000000000000000007bffffffffffffffffffffffffffffffffffffffffffffffffffffffff1916827bffffffffffffffffffffffffffffffffffffffffffffffffffffffff191614806103b357507f0e89341c000000000000000000000000000000000000000000000000000000007bffffffffffffffffffffffffffffffffffffffffffffffffffffffff1916827bffffffffffffffffffffffffffffffffffffffffffffffffffffffff1916145b806103c357506103c2826108b3565b5b9050919050565b60606006600083815260200190815260200160002080546103ea90612148565b80601f016020809104026020016040519081016040528092919081815260200182805461041690612148565b80156104635780601f1061043857610100808354040283529160200191610463565b820191906000526020600020905b81548152906001019060200180831161044657829003601f168201915b50505050509050919050565b3373ffffffffffffffffffffffffffffffffffffffff16600460009054906101000a900473ffffffffffffffffffffffffffffffffffffffff1673ffffffffffffffffffffffffffffffffffffffff16146104ff576040517f08c379a00000000000000000000000000000000000000000000000000000000081526004016104f6906121c5565b60405180910390fd5b600061050b600361091d565b905061054a600460009054906101000a900473ffffffffffffffffffffffffffffffffffffffff1682846040518060200160405280600081525061092b565b6105548185610adb565b61055e6003610b00565b61059c600460009054906101000a900473ffffffffffffffffffffffffffffffffffffffff1684838560405180602001604052806000815250610812565b50505050565b6105aa610b16565b73ffffffffffffffffffffffffffffffffffffffff168573ffffffffffffffffffffffffffffffffffffffff1614806105f057506105ef856105ea610b16565b61077e565b5b61062f576040517f08c379a000000000000000000000000000000000000000000000000000000000815260040161062690612257565b60405180910390fd5b61063c8585858585610b1e565b5050505050565b60608151835114610689576040517f08c379a0000000000000000000000000000000000000000000000000000000008152600401610680906122e9565b60405180910390fd5b6000835167ffffffffffffffff8111156106a6576106a5611957565b5b6040519080825280602002602001820160405280156106d45781602001602082028036833780820191505090505b50905060005b8451811015610751576107218582815181106106f9576106f8612309565b5b602002602001015185838151811061071457610713612309565b5b6020026020010151610220565b82828151811061073457610733612309565b5b6020026020010181815250508061074a90612367565b90506106da565b508091505092915050565b61076e610767610b16565b8383610e3f565b5050565b60038060000154905081565b6000600160008473ffffffffffffffffffffffffffffffffffffffff1673ffffffffffffffffffffffffffffffffffffffff16815260200190815260200160002060008373ffffffffffffffffffffffffffffffffffffffff1673ffffffffffffffffffffffffffffffffffffffff16815260200190815260200160002060009054906101000a900460ff16905092915050565b61081a610b16565b73ffffffffffffffffffffffffffffffffffffffff168573ffffffffffffffffffffffffffffffffffffffff161480610860575061085f8561085a610b16565b61077e565b5b61089f576040517f08c379a000000000000000000000000000000000000000000000000000000000815260040161089690612257565b60405180910390fd5b6108ac8585858585610fab565b5050505050565b60007f01ffc9a7000000000000000000000000000000000000000000000000000000007bffffffffffffffffffffffffffffffffffffffffffffffffffffffff1916827bffffffffffffffffffffffffffffffffffffffffffffffffffffffff1916149050919050565b600081600001549050919050565b600073ffffffffffffffffffffffffffffffffffffffff168473ffffffffffffffffffffffffffffffffffffffff160361099a576040517f08c379a000000000000000000000000000000000000000000000000000000000815260040161099190612421565b60405180910390fd5b60006109a4610b16565b905060006109b185611246565b905060006109be85611246565b90506109cf836000898585896112c0565b8460008088815260200190815260200160002060008973ffffffffffffffffffffffffffffffffffffffff1673ffffffffffffffffffffffffffffffffffffffff1681526020019081526020016000206000828254610a2e9190612441565b925050819055508673ffffffffffffffffffffffffffffffffffffffff16600073ffffffffffffffffffffffffffffffffffffffff168473ffffffffffffffffffffffffffffffffffffffff167fc3d58168c5ae7397731d063d5bbf3d657854427343f4c083240f7aacaa2d0f628989604051610aac929190612475565b60405180910390a4610ac3836000898585896112c8565b610ad2836000898989896112d0565b50505050505050565b80600660008481526020019081526020016000209081610afb919061264a565b505050565b6001816000016000828254019250508190555050565b600033905090565b8151835114610b62576040517f08c379a0000000000000000000000000000000000000000000000000000000008152600401610b599061278e565b60405180910390fd5b600073ffffffffffffffffffffffffffffffffffffffff168473ffffffffffffffffffffffffffffffffffffffff1603610bd1576040517f08c379a0000000000000000000000000000000000000000000000000000000008152600401610bc890612820565b60405180910390fd5b6000610bdb610b16565b9050610beb8187878787876112c0565b60005b8451811015610d9c576000858281518110610c0c57610c0b612309565b5b602002602001015190506000858381518110610c2b57610c2a612309565b5b60200260200101519050600080600084815260200190815260200160002060008b73ffffffffffffffffffffffffffffffffffffffff1673ffffffffffffffffffffffffffffffffffffffff16815260200190815260200160002054905081811015610ccc576040517f08c379a0000000000000000000000000000000000000000000000000000000008152600401610cc3906128b2565b60405180910390fd5b81810360008085815260200190815260200160002060008c73ffffffffffffffffffffffffffffffffffffffff1673ffffffffffffffffffffffffffffffffffffffff168152602001908152602001600020819055508160008085815260200190815260200160002060008b73ffffffffffffffffffffffffffffffffffffffff1673ffffffffffffffffffffffffffffffffffffffff1681526020019081526020016000206000828254610d819190612441565b9250508190555050505080610d9590612367565b9050610bee565b508473ffffffffffffffffffffffffffffffffffffffff168673ffffffffffffffffffffffffffffffffffffffff168273ffffffffffffffffffffffffffffffffffffffff167f4a39dc06d4c0dbc64b70af90fd698a233a518aa5d07e595d983b8c0526c8f7fb8787604051610e139291906128d2565b60405180910390a4610e298187878787876112c8565b610e378187878787876114a7565b505050505050565b8173ffffffffffffffffffffffffffffffffffffffff168373ffffffffffffffffffffffffffffffffffffffff1603610ead576040517f08c379a0000000000000000000000000000000000000000000000000000000008152600401610ea49061297b565b60405180910390fd5b80600160008573ffffffffffffffffffffffffffffffffffffffff1673ffffffffffffffffffffffffffffffffffffffff16815260200190815260200160002060008473ffffffffffffffffffffffffffffffffffffffff1673ffffffffffffffffffffffffffffffffffffffff16815260200190815260200160002060006101000a81548160ff0219169083151502179055508173ffffffffffffffffffffffffffffffffffffffff168373ffffffffffffffffffffffffffffffffffffffff167f17307eab39ab6107e8899845ad3d59bd9653f200f220920489ca2b5937696c3183604051610f9e9190611853565b60405180910390a3505050565b600073ffffffffffffffffffffffffffffffffffffffff168473ffffffffffffffffffffffffffffffffffffffff160361101a576040517f08c379a000000000000000000000000000000000000000000000000000000000815260040161101190612820565b60405180910390fd5b6000611024610b16565b9050600061103185611246565b9050600061103e85611246565b905061104e8389898585896112c0565b600080600088815260200190815260200160002060008a73ffffffffffffffffffffffffffffffffffffffff1673ffffffffffffffffffffffffffffffffffffffff168152602001908152602001600020549050858110156110e5576040517f08c379a00000000000000000000000000000000000000000000000000000000081526004016110dc906128b2565b60405180910390fd5b85810360008089815260200190815260200160002060008b73ffffffffffffffffffffffffffffffffffffffff1673ffffffffffffffffffffffffffffffffffffffff168152602001908152602001600020819055508560008089815260200190815260200160002060008a73ffffffffffffffffffffffffffffffffffffffff1673ffffffffffffffffffffffffffffffffffffffff168152602001908152602001600020600082825461119a9190612441565b925050819055508773ffffffffffffffffffffffffffffffffffffffff168973ffffffffffffffffffffffffffffffffffffffff168573ffffffffffffffffffffffffffffffffffffffff167fc3d58168c5ae7397731d063d5bbf3d657854427343f4c083240f7aacaa2d0f628a8a604051611217929190612475565b60405180910390a461122d848a8a86868a6112c8565b61123b848a8a8a8a8a6112d0565b505050505050505050565b60606000600167ffffffffffffffff81111561126557611264611957565b5b6040519080825280602002602001820160405280156112935781602001602082028036833780820191505090505b50905082816000815181106112ab576112aa612309565b5b60200260200101818152505080915050919050565b505050505050565b505050505050565b6112ef8473ffffffffffffffffffffffffffffffffffffffff1661167e565b1561149f578373ffffffffffffffffffffffffffffffffffffffff1663f23a6e6187878686866040518663ffffffff1660e01b81526004016113359594939291906129ff565b6020604051808303816000875af192505050801561137157506040513d601f19601f8201168201806040525081019061136e9190612a6e565b60015b6114165761137d612aa8565b806308c379a0036113d95750611391612aca565b8061139c57506113db565b806040517f08c379a00000000000000000000000000000000000000000000000000000000081526004016113d0919061192b565b60405180910390fd5b505b6040517f08c379a000000000000000000000000000000000000000000000000000000000815260040161140d90612bcc565b60405180910390fd5b63f23a6e6160e01b7bffffffffffffffffffffffffffffffffffffffffffffffffffffffff1916817bffffffffffffffffffffffffffffffffffffffffffffffffffffffff19161461149d576040517f08c379a000000000000000000000000000000000000000000000000000000000815260040161149490612c5e565b60405180910390fd5b505b505050505050565b6114c68473ffffffffffffffffffffffffffffffffffffffff1661167e565b15611676578373ffffffffffffffffffffffffffffffffffffffff1663bc197c8187878686866040518663ffffffff1660e01b815260040161150c959493929190612c7e565b6020604051808303816000875af192505050801561154857506040513d601f19601f820116820180604052508101906115459190612a6e565b60015b6115ed57611554612aa8565b806308c379a0036115b05750611568612aca565b8061157357506115b2565b806040517f08c379a00000000000000000000000000000000000000000000000000000000081526004016115a7919061192b565b60405180910390fd5b505b6040517f08c379a00000000000000000000000000000000000000000000000000000000081526004016115e490612bcc565b60405180910390fd5b63bc197c8160e01b7bffffffffffffffffffffffffffffffffffffffffffffffffffffffff1916817bffffffffffffffffffffffffffffffffffffffffffffffffffffffff191614611674576040517f08c379a000000000000000000000000000000000000000000000000000000000815260040161166b90612c5e565b60405180910390fd5b505b505050505050565b6000808273ffffffffffffffffffffffffffffffffffffffff163b119050919050565b6000604051905090565b600080fd5b600080fd5b600073ffffffffffffffffffffffffffffffffffffffff82169050919050565b60006116e0826116b5565b9050919050565b6116f0816116d5565b81146116fb57600080fd5b50565b60008135905061170d816116e7565b92915050565b6000819050919050565b61172681611713565b811461173157600080fd5b50565b6000813590506117438161171d565b92915050565b600080604083850312156117605761175f6116ab565b5b600061176e858286016116fe565b925050602061177f85828601611734565b9150509250929050565b61179281611713565b82525050565b60006020820190506117ad6000830184611789565b92915050565b60007fffffffff0000000000000000000000000000000000000000000000000000000082169050919050565b6117e8816117b3565b81146117f357600080fd5b50565b600081359050611805816117df565b92915050565b600060208284031215611821576118206116ab565b5b600061182f848285016117f6565b91505092915050565b60008115159050919050565b61184d81611838565b82525050565b60006020820190506118686000830184611844565b92915050565b600060208284031215611884576118836116ab565b5b600061189284828501611734565b91505092915050565b600081519050919050565b600082825260208201905092915050565b60005b838110156118d55780820151818401526020810190506118ba565b60008484015250505050565b6000601f19601f8301169050919050565b60006118fd8261189b565b61190781856118a6565b93506119178185602086016118b7565b611920816118e1565b840191505092915050565b6000602082019050818103600083015261194581846118f2565b905092915050565b600080fd5b600080fd5b7f4e487b7100000000000000000000000000000000000000000000000000000000600052604160045260246000fd5b61198f826118e1565b810181811067ffffffffffffffff821117156119ae576119ad611957565b5b80604052505050565b60006119c16116a1565b90506119cd8282611986565b919050565b600067ffffffffffffffff8211156119ed576119ec611957565b5b6119f6826118e1565b9050602081019050919050565b82818337600083830152505050565b6000611a25611a20846119d2565b6119b7565b905082815260208101848484011115611a4157611a40611952565b5b611a4c848285611a03565b509392505050565b600082601f830112611a6957611a6861194d565b5b8135611a79848260208601611a12565b91505092915050565b600080600060608486031215611a9b57611a9a6116ab565b5b600084013567ffffffffffffffff811115611ab957611ab86116b0565b5b611ac586828701611a54565b9350506020611ad6868287016116fe565b9250506040611ae786828701611734565b9150509250925092565b600067ffffffffffffffff821115611b0c57611b0b611957565b5b602082029050602081019050919050565b600080fd5b6000611b35611b3084611af1565b6119b7565b90508083825260208201905060208402830185811115611b5857611b57611b1d565b5b835b81811015611b815780611b6d8882611734565b845260208401935050602081019050611b5a565b5050509392505050565b600082601f830112611ba057611b9f61194d565b5b8135611bb0848260208601611b22565b91505092915050565b600067ffffffffffffffff821115611bd457611bd3611957565b5b611bdd826118e1565b9050602081019050919050565b6000611bfd611bf884611bb9565b6119b7565b905082815260208101848484011115611c1957611c18611952565b5b611c24848285611a03565b509392505050565b600082601f830112611c4157611c4061194d565b5b8135611c51848260208601611bea565b91505092915050565b600080600080600060a08688031215611c7657611c756116ab565b5b6000611c84888289016116fe565b9550506020611c95888289016116fe565b945050604086013567ffffffffffffffff811115611cb657611cb56116b0565b5b611cc288828901611b8b565b935050606086013567ffffffffffffffff811115611ce357611ce26116b0565b5b611cef88828901611b8b565b925050608086013567ffffffffffffffff811115611d1057611d0f6116b0565b5b611d1c88828901611c2c565b9150509295509295909350565b600067ffffffffffffffff821115611d4457611d43611957565b5b602082029050602081019050919050565b6000611d68611d6384611d29565b6119b7565b90508083825260208201905060208402830185811115611d8b57611d8a611b1d565b5b835b81811015611db45780611da088826116fe565b845260208401935050602081019050611d8d565b5050509392505050565b600082601f830112611dd357611dd261194d565b5b8135611de3848260208601611d55565b91505092915050565b60008060408385031215611e0357611e026116ab565b5b600083013567ffffffffffffffff811115611e2157611e206116b0565b5b611e2d85828601611dbe565b925050602083013567ffffffffffffffff811115611e4e57611e4d6116b0565b5b611e5a85828601611b8b565b9150509250929050565b600081519050919050565b600082825260208201905092915050565b6000819050602082019050919050565b611e9981611713565b82525050565b6000611eab8383611e90565b60208301905092915050565b6000602082019050919050565b6000611ecf82611e64565b611ed98185611e6f565b9350611ee483611e80565b8060005b83811015611f15578151611efc8882611e9f565b9750611f0783611eb7565b925050600181019050611ee8565b5085935050505092915050565b60006020820190508181036000830152611f3c8184611ec4565b905092915050565b611f4d81611838565b8114611f5857600080fd5b50565b600081359050611f6a81611f44565b92915050565b60008060408385031215611f8757611f866116ab565b5b6000611f95858286016116fe565b9250506020611fa685828601611f5b565b9150509250929050565b60008060408385031215611fc757611fc66116ab565b5b6000611fd5858286016116fe565b9250506020611fe6858286016116fe565b9150509250929050565b600080600080600060a0868803121561200c5761200b6116ab565b5b600061201a888289016116fe565b955050602061202b888289016116fe565b945050604061203c88828901611734565b935050606061204d88828901611734565b925050608086013567ffffffffffffffff81111561206e5761206d6116b0565b5b61207a88828901611c2c565b9150509295509295909350565b7f455243313135353a2061646472657373207a65726f206973206e6f742061207660008201527f616c6964206f776e657200000000000000000000000000000000000000000000602082015250565b60006120e3602a836118a6565b91506120ee82612087565b604082019050919050565b60006020820190508181036000830152612112816120d6565b9050919050565b7f4e487b7100000000000000000000000000000000000000000000000000000000600052602260045260246000fd5b6000600282049050600182168061216057607f821691505b60208210810361217357612172612119565b5b50919050565b7f4e6f74206f776e65722100000000000000000000000000000000000000000000600082015250565b60006121af600a836118a6565b91506121ba82612179565b602082019050919050565b600060208201905081810360008301526121de816121a2565b9050919050565b7f455243313135353a2063616c6c6572206973206e6f7420746f6b656e206f776e60008201527f6572206f7220617070726f766564000000000000000000000000000000000000602082015250565b6000612241602e836118a6565b915061224c826121e5565b604082019050919050565b6000602082019050818103600083015261227081612234565b9050919050565b7f455243313135353a206163636f756e747320616e6420696473206c656e67746860008201527f206d69736d617463680000000000000000000000000000000000000000000000602082015250565b60006122d36029836118a6565b91506122de82612277565b604082019050919050565b60006020820190508181036000830152612302816122c6565b9050919050565b7f4e487b7100000000000000000000000000000000000000000000000000000000600052603260045260246000fd5b7f4e487b7100000000000000000000000000000000000000000000000000000000600052601160045260246000fd5b600061237282611713565b91507fffffffffffffffffffffffffffffffffffffffffffffffffffffffffffffffff82036123a4576123a3612338565b5b600182019050919050565b7f455243313135353a206d696e7420746f20746865207a65726f2061646472657360008201527f7300000000000000000000000000000000000000000000000000000000000000602082015250565b600061240b6021836118a6565b9150612416826123af565b604082019050919050565b6000602082019050818103600083015261243a816123fe565b9050919050565b600061244c82611713565b915061245783611713565b925082820190508082111561246f5761246e612338565b5b92915050565b600060408201905061248a6000830185611789565b6124976020830184611789565b9392505050565b60008190508160005260206000209050919050565b60006020601f8301049050919050565b600082821b905092915050565b6000600883026125007fffffffffffffffffffffffffffffffffffffffffffffffffffffffffffffffff826124c3565b61250a86836124c3565b95508019841693508086168417925050509392505050565b6000819050919050565b600061254761254261253d84611713565b612522565b611713565b9050919050565b6000819050919050565b6125618361252c565b61257561256d8261254e565b8484546124d0565b825550505050565b600090565b61258a61257d565b612595818484612558565b505050565b5b818110156125b9576125ae600082612582565b60018101905061259b565b5050565b601f8211156125fe576125cf8161249e565b6125d8846124b3565b810160208510156125e7578190505b6125fb6125f3856124b3565b83018261259a565b50505b505050565b600082821c905092915050565b600061262160001984600802612603565b1980831691505092915050565b600061263a8383612610565b9150826002028217905092915050565b6126538261189b565b67ffffffffffffffff81111561266c5761266b611957565b5b6126768254612148565b6126818282856125bd565b600060209050601f8311600181146126b457600084156126a2578287015190505b6126ac858261262e565b865550612714565b601f1984166126c28661249e565b60005b828110156126ea578489015182556001820191506020850194506020810190506126c5565b868310156127075784890151612703601f891682612610565b8355505b6001600288020188555050505b505050505050565b7f455243313135353a2069647320616e6420616d6f756e7473206c656e6774682060008201527f6d69736d61746368000000000000000000000000000000000000000000000000602082015250565b60006127786028836118a6565b91506127838261271c565b604082019050919050565b600060208201905081810360008301526127a78161276b565b9050919050565b7f455243313135353a207472616e7366657220746f20746865207a65726f20616460008201527f6472657373000000000000000000000000000000000000000000000000000000602082015250565b600061280a6025836118a6565b9150612815826127ae565b604082019050919050565b60006020820190508181036000830152612839816127fd565b9050919050565b7f455243313135353a20696e73756666696369656e742062616c616e636520666f60008201527f72207472616e7366657200000000000000000000000000000000000000000000602082015250565b600061289c602a836118a6565b91506128a782612840565b604082019050919050565b600060208201905081810360008301526128cb8161288f565b9050919050565b600060408201905081810360008301526128ec8185611ec4565b905081810360208301526129008184611ec4565b90509392505050565b7f455243313135353a2073657474696e6720617070726f76616c2073746174757360008201527f20666f722073656c660000000000000000000000000000000000000000000000602082015250565b60006129656029836118a6565b915061297082612909565b604082019050919050565b6000602082019050818103600083015261299481612958565b9050919050565b6129a4816116d5565b82525050565b600081519050919050565b600082825260208201905092915050565b60006129d1826129aa565b6129db81856129b5565b93506129eb8185602086016118b7565b6129f4816118e1565b840191505092915050565b600060a082019050612a14600083018861299b565b612a21602083018761299b565b612a2e6040830186611789565b612a3b6060830185611789565b8181036080830152612a4d81846129c6565b90509695505050505050565b600081519050612a68816117df565b92915050565b600060208284031215612a8457612a836116ab565b5b6000612a9284828501612a59565b91505092915050565b60008160e01c9050919050565b600060033d1115612ac75760046000803e612ac4600051612a9b565b90505b90565b600060443d10612b5757612adc6116a1565b60043d036004823e80513d602482011167ffffffffffffffff82111715612b04575050612b57565b808201805167ffffffffffffffff811115612b225750505050612b57565b80602083010160043d038501811115612b3f575050505050612b57565b612b4e82602001850186611986565b82955050505050505b90565b7f455243313135353a207472616e7366657220746f206e6f6e2d4552433131353560008201527f526563656976657220696d706c656d656e746572000000000000000000000000602082015250565b6000612bb66034836118a6565b9150612bc182612b5a565b604082019050919050565b60006020820190508181036000830152612be581612ba9565b9050919050565b7f455243313135353a204552433131353552656365697665722072656a6563746560008201527f6420746f6b656e73000000000000000000000000000000000000000000000000602082015250565b6000612c486028836118a6565b9150612c5382612bec565b604082019050919050565b60006020820190508181036000830152612c7781612c3b565b9050919050565b600060a082019050612c93600083018861299b565b612ca0602083018761299b565b8181036040830152612cb28186611ec4565b90508181036060830152612cc68185611ec4565b90508181036080830152612cda81846129c6565b9050969550505050505056fea2646970667358221220c54886be7e42da1e1c22b327008bcc2c071aa8e1c8ac7d8d39f23538ecc6837b64736f6c63430008130033",
  "immutableReferences": {},
  "source": "// SPDX-License-Identifier: GPL-3.0\r\npragma solidity ^0.8.15;\r\n\r\nimport \"../node_modules/@openzeppelin/contracts/token/ERC1155/ERC1155.sol\";\r\nimport \"../node_modules/@openzeppelin/contracts/utils/Counters.sol\";\r\n\r\ncontract DellFactory is ERC1155 {\r\n    using Counters for Counters.Counter;\r\n    Counters.Counter public _tokenIds;\r\n\r\n    // State Variables\r\n    address private owner;\r\n    string private _uri;\r\n    mapping(uint256 => string) private _tokenURIs;\r\n\r\n    // Modifier\r\n    modifier isOwner() {\r\n        require(owner == msg.sender, \"Not owner!\");\r\n        _;\r\n    }\r\n\r\n    // Constructor\r\n    constructor() ERC1155(\"\") {\r\n        owner = msg.sender;\r\n    }\r\n\r\n    // Functions\r\n    function _setTokenUri(uint256 tokenId, string memory tokenURI) private {\r\n        _tokenURIs[tokenId] = tokenURI;\r\n    }\r\n\r\n    function uri(uint256 tokenId) public view override returns (string memory) {\r\n        return (_tokenURIs[tokenId]);\r\n    }\r\n\r\n    function mintAchievement(\r\n        string memory _newTokenURI,\r\n        address _receiver,\r\n        uint256 _amount\r\n    ) public isOwner {\r\n        // Picking the actual token id\r\n        uint256 newNFTId = _tokenIds.current();\r\n\r\n        // Creating a NFT to the owner\r\n        _mint(owner, newNFTId, _amount, \"\");\r\n\r\n        // Setting the token URI for the NFT just minted\r\n        _setTokenUri(newNFTId, _newTokenURI);\r\n\r\n        // Increasing the token Id\r\n        _tokenIds.increment();\r\n\r\n        // Trasfering the NFT to the receiver\r\n        safeTransferFrom(owner, _receiver, newNFTId, _amount, \"\");\r\n    }\r\n}\r\n",
  "sourcePath": "C:\\Users\\Rogerio\\Documents\\GitHub\\ProjetoDell\\2023-1a-t03-grupo5\\src\\Blockchain\\contracts\\DellFactory.sol",
  "compiler": {
    "name": "solc",
    "version": "0.8.19+commit.7dd6d404.Emscripten.clang"
  },
  "schemaVersion": "3.4.13",
  "updatedAt": "2023-04-03T20:32:40.908Z",
  "networkType": "ethereum",
  "devdoc": {
    "events": {
      "ApprovalForAll(address,address,bool)": {
        "details": "Emitted when `account` grants or revokes permission to `operator` to transfer their tokens, according to `approved`."
      },
      "TransferBatch(address,address,address,uint256[],uint256[])": {
        "details": "Equivalent to multiple {TransferSingle} events, where `operator`, `from` and `to` are the same for all transfers."
      },
      "TransferSingle(address,address,address,uint256,uint256)": {
        "details": "Emitted when `value` tokens of token type `id` are transferred from `from` to `to` by `operator`."
      },
      "URI(string,uint256)": {
        "details": "Emitted when the URI for token type `id` changes to `value`, if it is a non-programmatic URI. If an {URI} event was emitted for `id`, the standard https://eips.ethereum.org/EIPS/eip-1155#metadata-extensions[guarantees] that `value` will equal the value returned by {IERC1155MetadataURI-uri}."
      }
    },
    "kind": "dev",
    "methods": {
      "balanceOf(address,uint256)": {
        "details": "See {IERC1155-balanceOf}. Requirements: - `account` cannot be the zero address."
      },
      "balanceOfBatch(address[],uint256[])": {
        "details": "See {IERC1155-balanceOfBatch}. Requirements: - `accounts` and `ids` must have the same length."
      },
      "isApprovedForAll(address,address)": {
        "details": "See {IERC1155-isApprovedForAll}."
      },
      "safeBatchTransferFrom(address,address,uint256[],uint256[],bytes)": {
        "details": "See {IERC1155-safeBatchTransferFrom}."
      },
      "safeTransferFrom(address,address,uint256,uint256,bytes)": {
        "details": "See {IERC1155-safeTransferFrom}."
      },
      "setApprovalForAll(address,bool)": {
        "details": "See {IERC1155-setApprovalForAll}."
      },
      "supportsInterface(bytes4)": {
        "details": "See {IERC165-supportsInterface}."
      }
    },
    "version": 1
  },
  "userdoc": {
    "kind": "user",
    "methods": {},
    "version": 1
  }
}